:100F31002D434752414D3A002D002D52454D4F54FE
:0B0F4100452D4D435500253034640061
:050CF300420068000052
:100B4900120003120E61120F1012109C7BFF7A0F14
:100B59007931E4FF120DF0E490006AF090006AE048
:100B6900FD2407FF12107890006AE004F0E0C394B6
:100B79000840E97BFF7A0F79397F0F120DF07BFF6F
:100B89007A0F793B7F40120DF07BFF7A0F79397F1D
:100B99004F120DF0900069E004F07006900068E0D3
:100BA90004F0C3900069E09410900068E094274035
:100BB90004E4F0A3F090004374FFF0A3740FF0A3D2
:100BC9007447F0900068E0FFA3E0900046CFF0A3DF
:100BD900EFF07B017A00796B1200CB7B017A007907
:0F0BE9006B7F4B120DF07FE87E03120F9C80A5EF
:100003009000407403F0A374C0F07B017A00794040
:10001300E4FF1203D19000407403F0A374D1F07F86
:10002300011203CB9000407403F0A3748CF07F02A1
:100033001203CB9000407403F0A37480F07B017A29
:100043000079407F031203D19000407403F0A3743E
:0D00530034F07B017A0079407F040203D174
:0603CB007B017A0079407D
:1003D100EFD3940740037F01221207C0FED3940399
:1003E10040037F0222EF7041EE700B900001120773
:1003F100D9F4529352941207C0B4010B9000011228
:1004010007D94293F452941207C0FEB4020A900035
:10041100011207D942934294EEB4030D90000112E8
:1004210007D9FEF45293EE4294EF64017043120730
:10043100C0FE700B9000011207D9F452915292EE56
:10044100B4010B9000011207D94291F452921207A4
:10045100C0B4020A9000011207D9429142921207D8
:10046100C0B4030D9000011207D9FEF45291EE427F
:1004710092EF640270431207C0FE700B90000112EC
:1004810007D9F452955296EEB4010B900001120770
:10049100D94295F452961207C0B4020A9000011293
:1004A10007D9429542961207C0B4030D900001127C
:1004B10007D9FEF45295EE4296EF6403704312079A
:1004C100C0FE700B9000011207D9F452B152B2EE86
:1004D100B4010B9000011207D942B1F452B21207D4
:1004E100C0B4020A9000011207D942B142B2120708
:1004F100C0B4030D9000011207D9FEF452B1EE42CF
:10050100B2EF640470431207C0FE700B9000011239
:1005110007D9F452B352B4EEB4010B9000011207A3
:10052100D942B3F452B41207C0B4020A90000112C6
:1005310007D942B342B41207C0B4030D90000112AF
:1005410007D9FEF452B3EE42B4EF640570431207CB
:10055100C0FE700B9000011207D9F452C952CAEEC5
:10056100B4010B9000011207D942C9F452CA120713
:10057100C0B4020A9000011207D942C942CA120747
:10058100C0B4030D9000011207D9FEF452C9EE4226
:10059100CAEF640670431207C0FE700B900001128F
:1005A10007D9F452CB52CCEEB4010B9000011207E3
:1005B100D942CBF452CC1207C0B4020A9000011206
:1005C10007D942CB42CC1207C0B4030D90000112EF
:1005D10007D9FEF452CBEE42CCEF64077043120709
:1005E100C0FF700B9000011207D9F452E152E2EF03
:1005F100B4010B9000011207D942E1F452E2120753
:10060100C0B4020A9000011207D942E142E2120786
:10061100C0B4030D9000011207D9FFF452E1EF427B
:04062100E27F002252
:101045009000907403F0A3F07B017A0079907F05FE
:031055000203D1C2
:100F9C007D037C09ED1D70011C144C70F7EF1F7064
:070FAC00011E144E70EA2241
:100FB3007D017C00ED1D70011C144C70F7EF1F7058
:070FC300011E144E70EA222A
:100E96009000937410F09000927401F0FB7A007940
:100EA600927F031203D19000937401F09000927424
:0D0EB60003F07B017A0079927F050203D1E1
:101009009000947403F0A304F07B017A0079947F33
:04101900030203D1FA
:10101D00E4900096F0A374FFF07B017A0079967F3F
:04102D00060203D1E3
:100901009000A67410F0AFE8EF1208A9094111098F
:10091100601209801409A018094821096822098870
:100921002409A82809504109704209904409B04896
:1009310009588109788209988409B888000009C09A
:10094100E49000A6F0807E9000A67401F08076907D
:1009510000A67402F0806E9000A67403F080669089
:1009610000A67404F0805E9000A67405F080569095
:1009710000A67406F0804E9000A67407F0804690A1
:1009810000A67408F0803E9000A67409F0803690AD
:1009910000A6740AF0802E9000A6740BF0802690B9
:1009A10000A6740CF0801E9000A6740DF0801690C5
:1009B10000A6740EF0800E9000A6740FF0800690D1
:0B09C10000A67410F09000A6E0FF22DA
:10103100E4900098F0A3740CF07B017A0079987F1A
:04104100030203D1D2
:100FCA0090009A7403F0A37480F07B017A00799AF6
:050FDA007F020203D1BB
:10062500AD07EDD3940240037F0122ED600302067E
:10063500B9C28C9000021207D9B40104D2A9800274
:10064500C2A99000011207D9B40104D2B98002C22F
:10065500B91207C0FED3940340037F0222E58954F3
:10066500FC4EF5899000031207D9FFB40103538EA0
:100675007FEF7003438E80EFB40205438904800346
:100685005389FB9000041207D9B40105438F0180FB
:1006950003538FFE900005120871E5F0F58C90006C
:1006A50005120871F58A9000071207D9B40102D224
:1006B5008C7F0022ED64016003020744C28E900026
:1006C500021207D9B40104D2AB8002C2AB9000017B
:1006D5001207D9B40104D2BB8002C2BB1207C0FE07
:1006E500C3940340037F0222E58954CF4EF58990D8
:1006F50000031207D9FFB40103538EBFEF70034304
:100705008E40EFB4020543894080035389BF9000B2
:10071500041207D9B40105438F028003538FFD905E
:100725000005120871E5F0F58D900005120871F5C8
:100735008B9000071207D9B40102D28E7F0022EDFB
:1007450064027074538EEF9000021207D9B401054C
:1007550043AF04800353AFFB9000031207D9FED3C8
:10076500940240037F0222EEB40103538EFB9000F6
:10077500031207D97003438E049000031207D9B4FE
:100785000205438E088003538EF79000041207D9A3
:10079500B40105438F048003538FFB9000051208B5
:1007A50071FDACF0ECF5D68DD79000071207D9B4E2
:0B07B5000103438E107F00227F022210
:0300630002006038
:03006000B2A73212
:100FDF0090009C7403F0A37480F07B017A00799CDD
:050FEF007F020203D1A6
:101058003F065B4F666D7D077F6F777C395E7971E0
:100FF40090009E7403F0A374FFF07B017A00799E45
:051004007F070203D18B
:101068003F065B4F666D7D077F6F777C395E7971D0
:100C84009000A07403F0A374FFF07B017A0079A0B4
:100C94007F071203D19000A07403F0A37480F07B4B
:100CA400017A0079A07F021203D19000A07403F0AE
:100CB400A37401F0FB7A0079A07F031203D19000A2
:100CC400A07403F0A314F07B017A0079A07F0312CF
:100CD40003D19000A07403F0A304F07B017A00799F
:0F0CE400A07F031203D1D2A7D2B0D2B1D2B222D5
:100A910090008BEDF0AB07AA067C037DE8120806F7
:100AA100A3EFF07C037DE8AF03AE021208067E00DF
:100AB1007F64CFCDCFCECCCE120806A3EFF07C0061
:100AC1007D64AF03AE021208067E007F0ACFCDCF50
:100AD100CECCCE120806A3EFF0AE02AF037C007DB0
:100AE1000A120806A3EDF0C2A790008CE0901068EE
:100AF10093F5F890008BE0FF7E00120F9CD2A7C205
:100B0100B090008DE090106893F5F890008BE0FFB5
:100B11007E00120F9CD2B0C2B190008EE09010689E
:100B210093F5F890008BE0FF7E00120F9CD2B1C2CA
:100B3100B290008FE090106893F5F890008BE0FF81
:080B41007E00120F9CD2B222CB
:100CF80048007BFEFDFBF7EFDFBF7F4800838040A5
:060D0800201008040201A6
:100EEA009000A27403F0A374FFF07B017A0079A248
:100EFA007F071203D19000A374FFF07B017A007977
:060F0A00A27F060203D1E4
:100F4C00747B2FF582E43400F583E0F5E874832D8F
:0B0F5C00F582E43400F583E0F5F82294
:100D0E0060200020000100020004000800100020F6
:100D1E0000400080010002000400080010002000C6
:100D2E004000800060200000000100020004000866
:100D3E0000100020004000800100020004000800A6
:080D4E001000200040008000AD
:100D57009000A47403F0A374FFF07B017A0079A4D8
:100D67007F071203D19000A574FFF07B017A007909
:100D7700A47F061203D19000A574E7F07B017A00E7
:100D870079A4E4FF1203D19000A574F8F07B017AEF
:100D97000079A47F011203D19000A5743FF07B0175
:090DA7007A0079A47F030203D154
:1009CC00AB05AA04EF1392FFEFA2E192FEA2E29212
:1009DC00FDA2E392FCA2E492FBA2E592FAA2E692BB
:1009EC00F93392F8EE1392EFEEA2E192EEA2E292BC
:1009FC00EDA2E392ECA2E492EBA2E592EAA2E692DB
:100A0C00E93392E8EB54FE4A24FF9281EB54FD4A01
:100A1C0024FF9282EB54FB4A24FF9285EB54F74A55
:100A2C0024FF9286EB54EF4A24FF9287EB54DF4A63
:100A3C0024FF9280EB54BF4A24FF9293EB547F4ADD
:100A4C0024FF9294EA54FE4B24FF9295EA54FD4BFA
:100A5C0024FF9296EA54FB4B24FF9297EA54F74BEF
:100A6C0024FF92B0EA54EF4B24FF92B1EA54DF4BCF
:100A7C0024FF92B2EA54BF4B24FF92B4EA547F4B4A
:050A8C0024FF92B522D9
:100E2A00EF25E0FFEE33FE74202FF58274003EF5C5
:100E3A0083E0FEA3E0FFC006C007ED25E0FFEC3328
:100E4A00FE74202FF58274003EF583E0FCA3E0FDDA
:070E5A00D007D0060209CC0D
:100DB000181807080808070000000000FF000000DE
:100DC0000000000E00FF00000000FF000E00FF000A
:100DD0000000FFF5FBF1FF0000FE08FE0A0AFF001D
:100DE000000400FF000A1100001F111F11111F0055
:100E6100E4900040F0A374FFF07B017A0079407FA9
:100E7100061203D1900041740FF07B017A00794092
:100E81007F071203D19000417401F0FB7A00794091
:050E9100E4FF0203D1A3
:080F8200C2FB8FE8D2807F055D
:100F8A00AD071FED600BE4FEEEC3940150F20E8034
:020F9A00F7223C
:0110A100222C
:0B1086001210A1C2F9120F82C28022DA
:0B1091001210A1D2F9120F82C28022BF
:05109C007F0102108637
:100F67007F061210867F40121086E4FCEC900DB0CD
:0B0F770093FF1210910CECB440F2222A
:100F1000E4F5CCF5CB7F381210867F011210867F66
:100F2000021210867F061210867F0C121086020FA6
:010F30006759
:0E107800AC05EF4480FF121086AF0402109109
:100DF000900040EBF0A3EAF0A3E9F0EF4480FF128B
:100E00001086900040E0FBA3E0FAA3E0F91207C0CF
:100E10006017900040A3E475F00112085BA9F0FA96
:0A0E20001207C0FF12109180D922C2
:03000000020BF8F8
:0C0BF800787FE4F6D8FD758121020C3FE7
:1007C000BB010689828A83E0225002E722BBFE0237
:0907D000E32289828A83E493226A
:1007D900BB010CE58229F582E5833AF583E02250D5
:1007E90006E92582F8E622BBFE06E92582F8E2221F
:0D07F900E58229F582E5833AF583E4932239
:10080600BC000BBE0029EF8DF084FFADF022E4CCD6
:10081600F875F008EF2FFFEE33FEEC33FCEE9DEC9F
:10082600984005FCEE9DFE0FD5F0E9E4CEFD22EDE5
:10083600F8F5F0EE8420D21CFEADF075F008EF2F2F
:10084600FFED33FD4007985006D5F0F222C398FD20
:050856000FD5F0EA22BD
:10085B00A3F8E0C5F025F0F0E58215827002158350
:06086B00E0C838F0E822AD
:10087100BB0110E58229F582E5833AF583E0F5F0C5
:10088100A3E0225009E92582F886F008E622BBFEA2
:100891000AE92582F8E2F5F008E222E5832AF583E8
:0808A100E993F5F0A3E99322AD
:1008A900D083D082F8E4937012740193700DA3A3DE
:1008B90093F8740193F5828883E4737402936860F2
:0608C900EFA3A3A380DFF2
:10006600E5082443F582E43400F583E00508229090
:100076000040300703900043E475F0011208E102E6
:1000860007C02000E97F2ED2008018EF540F24907D
:10009600D43440D4FF30040BEF24BFB41A0050030D
:1000A6002461FFE50960021509050CE50C700205DF
:1000B6000B30070E900040E475F0011208E1EF02E4
:1000C60008CF020EC37403D2078003E4C207F50803
:1000D6009000401208F8E4F509F50BF50CE5096007
:1000E600077F201200A980F5750AFFC201C200C26F
:1000F60002C203C205C206C208120075FF700D30A7
:1001060007057F001200BAAF0CAE0B22B4255FC202
:10011600D5C204120075FF24D0B40A00501A75F037
:100126000A780930D50508B6FF0106C6A426F620CA
:10013600D5047002D20380D924CFB41A00EF50043C
:10014600C2E5D2040202BBD20180C6D20080C0D270
:100156000280BCD2D580BAD20580B47F201200A915
:100166002002077401B5090040F1120066FF120073
:10017600A90200E3D208D2068095120066FB12009F
:1001860066FA120066F94A4B7006798C7A037BFF91
:1001960020022EE509602A7E008E827583001207F2
:1001A600D960060EEE650A70F0C2D5EBC0E0EAC073
:1001B600E0E9C0E0EE120302D0E0F9D0E0FAD0E0C8
:1001C600FB1207C0FF60AAEBC0E0EAC0E0E9C0E0AE
:1001D6001200A9D0E02401F9D0E03400FAD0E0FB07
:1001E600E50A0460DCD50AD980877BFF7A0279FEAE
:1001F600D202809C791080027908C206C208800863
:10020600D2D5790A8004790AC2D5E50A047002F5C6
:100216000AE4FAFDFEFF120066FC7B0820011312B9
:100226000066FD7B1030000A120066FE120066FFB3
:100236007B20EC3382D592D55013C3E43000069F61
:10024600FFE49EFEE42001039DFDE49CFCE4CBF864
:10025600C201EC700CCFCECDCCE824F8F870F38058
:1002660017C3EF33FFEE33FEED33FDEC33FCEB3318
:10027600FB994002FB0FD8E9EB300105F8D0E0C44A
:1002860048B201C0E00AEC4D4E4F78207B0070C2A8
:10029600EAB50A0040BCC0E0120304D0F0D0E0206A
:1002A6000104C4C0E0C4B201C0F0120092D0F0D57F
:1002B600F0EB0200E31208A901805301FA5801513C
:1002C6004C014D4201FE4F020644020649016643B7
:0802D600020C5501F04601F095
:1002DE004501F04703AC5001552D01592E017C2BE1
:1002EE00015D23017A2003952A011548000001744F
:1002FE003F3F3F00790AA2D5200314300509B910FB
:10030E00020404B9080104A2D520060250010420FB
:10031E0002689202B509005034C0E07F2030031904
:10032E007F30A20272067205500F12035BC202C228
:10033E0006C205C2087F30800F300503E9C0E01207
:10034E0000A9300503D0E0F9D0E0B509CC3005178F
:10035E007F30B9100C1200A97F583004077F7880C7
:10036E0003B908031200A93002057F2D0200A97FF0
:10037E00202008F87F2B2006F322920280CF286ED1
:10038E00756C6C2900D2011200663001F8C201783A
:10039E000930D50108F60201152D504349581200B7
:1003AE00662403B405004001E49003A79312009A5B
:0D03BE00743A12009AD2037509040201FA84
:100C0400020B49E493A3F8E493A34003F68001F2B2
:100C140008DFF48029E493A3F85407240CC8C333F1
:100C2400C4540F4420C8834004F456800146F6DFC0
:100C3400E4800B0102040810204080900CF3E47E51
:100C4400019360BCA3FF543F30E509541FFEE493B5
:100C5400A360010ECF54C025E060A840B8E493A37C
:100C6400FAE493A3F8E493A3C8C582C8CAC583CAA7
:100C7400F0A3C8C582C8CAC583CADFE9DEE780BE5F
:010D5600009C
:1008CF00BB010689828A83F0225002F722BBFE0108
:0208DF00F32202
:1008E100F8E0FBA3A3E0F925F0F0E58215827002A0
:0708F1001583E0FA38F02244
:0908F800EBF0A3EAF0A3E9F02201
:100EC300EFB40A07740D120ECE740A309811A89964
:100ED300B8130CC2983098FDA899C298B811F6308F
:070EE30099FDC299F5992267
:00000001FF
