:1003000012025D1203B41203A0C2ECC2ED30E90F79
:10031000D2ECC2ED7FB87E0B120372C2ECC2ED309C
:10032000EA0FC2ECD2ED7FB87E0B120372C2ECC2B0
:10033000ED30EBD9D2ECD2ED7FB87E0B120372C256
:05034000ECC2ED80C8D5
:10025D009000027403F0A374C0F07B017A00790260
:10026D00E4FF1200099000027403F0A374D1F07F33
:10027D00011200039000027403F0A3748CF07F024E
:10028D001200039000027403F0A37480F07B017AD6
:10029D000079027F031200099000027403F0A37429
:0D02AD0034F07B017A0079027F0402000921
:060003007B017A00790286
:10000900EFD3940740037F01221202BAFED394036F
:1000190040037F0222EF7041EE700B900001120243
:10002900D3F4529352941202BAB4010B9000011204
:1000390002D34293F452941202BAFEB4020A900017
:10004900011202D342934294EEB4030D90000112BF
:1000590002D3FEF45293EE4294EF6401704312020C
:10006900BAFE700B9000011202D3F452915292EE33
:10007900B4010B9000011202D34291F45292120280
:10008900BAB4020A9000011202D3429142921202BA
:10009900BAB4030D9000011202D3FEF45291EE425C
:1000A90092EF640270431202BAFE700B90000112C3
:1000B90002D3F452955296EEB4010B90000112024C
:1000C900D34295F452961202BAB4020A9000011270
:1000D90002D3429542961202BAB4030D900001125E
:1000E90002D3FEF45295EE4296EF64037043120276
:1000F900BAFE700B9000011202D3F452B152B2EE63
:10010900B4010B9000011202D342B1F452B21202AF
:10011900BAB4020A9000011202D342B142B21202E9
:10012900BAB4030D9000011202D3FEF452B1EE42AB
:10013900B2EF640470431202BAFE700B9000011210
:1001490002D3F452B352B4EEB4010B90000112027F
:10015900D342B3F452B41202BAB4020A90000112A3
:1001690002D342B342B41202BAB4030D9000011291
:1001790002D3FEF452B3EE42B4EF640570431202A7
:10018900BAFE700B9000011202D3F452C952CAEEA2
:10019900B4010B9000011202D342C9F452CA1202EF
:1001A900BAB4020A9000011202D342C942CA120229
:1001B900BAB4030D9000011202D3FEF452C9EE4203
:1001C900CAEF640670431202BAFE700B9000011266
:1001D90002D3F452CB52CCEEB4010B9000011202BF
:1001E900D342CBF452CC1202BAB4020A90000112E3
:1001F90002D342CB42CC1202BAB4030D90000112D1
:1002090002D3FEF452CBEE42CCEF640770431202E4
:10021900BAFF700B9000011202D3F452E152E2EFDF
:10022900B4010B9000011202D342E1F452E212022E
:10023900BAB4020A9000011202D342E142E2120268
:10024900BAB4030D9000011202D3FFF452E1EF4258
:04025900E27F00221E
:1003A000E4900002F0A37430F07B017A0079027FC0
:0403B0000602000938
:1003B400E4900002F0A3740EF07B017A0079027FCE
:0403C4000602000924
:100372007D037C09ED1D70011C144C70F7EF1F709A
:07038200011E144E70EA2277
:100389007D017C00ED1D70011C144C70F7EF1F708E
:07039900011E144E70EA2260
:100345009000017410F09000007401F0FB7A0079C0
:10035500007F031200099000017401F09000007401
:0D03650003F07B017A0079007F050200099A
:030000000203C830
:0C03C800787FE4F6D8FD75810702030081
:1002BA00BB010689828A83E0225002E722BBFE0242
:0902CA00E32289828A83E4932275
:1002D300BB010CE58229F582E5833AF583E02250E0
:1002E30006E92582F8E622BBFE06E92582F8E2222A
:0D02F300E58229F582E5833AF583E4932244
:00000001FF
