:1027F4001223EE122B8A122BC4D2AF900A16E024B5
:1028040032F0900A15E03400F07FE87E03122AB516
:102814007FE87E03122AB57FE87E03122AB57FE89B
:072824007E03122AB580D4E7
:1023EE00900A387403F0A374C0F07B017A0A79382E
:1023FE00E4FF121729900A387403F0A374D1F07F0A
:10240E0001121723900A387403F0A3748CF07F0224
:10241E00121723900A387403F0A37480F07B017AAC
:10242E000A79387F03121729900A387403F0A374BF
:10243E0034F07B017A0A79387F04121729E4F59378
:10244E00F594F591F592F595F596F5B1F5B2F5B3DE
:0F245E00F5B4F5C9F5CAF5CBF5CCF5E1F5E222F9
:061723007B017A0A79380F
:10172900EFD3940740037F012212120CFED39403D6
:1017390040037F0222EF7041EE700B9000011212FC
:1017490025F45293529412120CB4010B9000011219
:1017590012254293F4529412120CFEB4020A90001C
:101769000112122542934294EEB4030D9000011226
:101779001225FEF45293EE4294EF64017043121263
:101789000CFE700B900001121225F452915292EE48
:10179900B4010B9000011212254291F452921212D7
:1017A9000CB4020A900001121225429142921212BF
:1017B9000CB4030D900001121225FEF45291EE4271
:1017C90092EF6402704312120CFE700B900001122A
:1017D9001225F452955296EEB4010B9000011212A3
:1017E900254295F4529612120CB4020A9000011285
:1017F90012254295429612120CB4030D9000011263
:101809001225FEF45295EE4296EF640370431212CC
:101819000CFE700B900001121225F452B152B2EE77
:10182900B4010B90000112122542B1F452B2121206
:101839000CB4020A90000112122542B142B21212EE
:101849000CB4030D900001121225FEF452B1EE42C0
:10185900B2EF6404704312120CFE700B9000011277
:101869001225F452B352B4EEB4010B9000011212D6
:101879002542B3F452B412120CB4020A90000112B8
:10188900122542B342B412120CB4030D9000011296
:101899001225FEF452B3EE42B4EF640570431212FE
:1018A9000CFE700B900001121225F452C952CAEEB7
:1018B900B4010B90000112122542C9F452CA121246
:1018C9000CB4020A90000112122542C942CA12122E
:1018D9000CB4030D900001121225FEF452C9EE4218
:1018E900CAEF6406704312120CFE700B90000112CD
:1018F9001225F452CB52CCEEB4010B900001121216
:101909002542CBF452CC12120CB4020A90000112F7
:10191900122542CB42CC12120CB4030D90000112D5
:101929001225FEF452CBEE42CCEF6407704312123B
:101939000CFF700B900001121225F452E152E2EFF4
:10194900B4010B90000112122542E1F452E2121285
:101959000CB4020A90000112122542E142E212126D
:101969000CB4030D900001121225FFF452E1EF426D
:04197900E27F0022E7
:102B9E00900A1A7403F0A3F07B017A0A791A7F0562
:032BAE00021729E2
:102AB5007D037C09ED1D70011C144C70F7EF1F7030
:072AC500011E144E70EA220D
:102ACC007D017C00ED1D70011C144C70F7EF1F7024
:072ADC00011E144E70EA22F6
:102B4E00900A1C7403F0A304F07B017A0A791C7FAF
:042B5E00030217292E
:102B6200E4900A1EF0A3740CF07B017A0A791E7FAE
:042B7200030217291A
:102AFA00900A207403F0A37480F07B017A0A79208B
:052B0A007F0202172903
:10197D00AD07EDD3940240037F0122ED6003021AFF
:10198D0011C28C900002121225B40104D2A980025A
:10199D00C2A9900001121225B40104D2B98002C26D
:1019AD00B912120CFED3940340037F0222E5895431
:1019BD00FC4EF589900003121225FFB40103538EDE
:1019CD007FEF7003438E80EFB402054389048003DB
:1019DD005389FB900004121225B40105438F018039
:1019ED0003538FFE9000051212E5E5F0F58C900083
:1019FD00051212E5F58A900007121225B40102D2E4
:101A0D008C7F0022ED64016003021A9CC28E90004F
:101A1D0002121225B40104D2AB8002C2AB900001B8
:101A2D00121225B40104D2BB8002C2BB12120CFEED
:101A3D00C3940340037F0222E58954CF4EF589906C
:101A4D000003121225FFB40103538EBFEF70034341
:101A5D008E40EFB4020543894080035389BF900047
:101A6D0004121225B40105438F028003538FFD909C
:101A7D0000051212E5E5F0F58D9000051212E5F561
:101A8D008B900007121225B40102D28E7F0022ED39
:101A9D0064027074538EEF900002121225B401058A
:101AAD0043AF04800353AFFB900003121225FED306
:101ABD00940240037F0222EEB40103538EFB90008B
:101ACD00031212257003438E04900003121225B4E5
:101ADD000205438E088003538EF7900004121225E1
:101AED00B40105438F048003538FFB900005121240
:101AFD00E5FDACF0ECF5D68DD7900007121225B4AC
:0B1B0D000103438E107F00227F0222A4
:03006300022C7EEE
:032C7E00B2A732C8
:102B0F00900A227403F0A37480F07B017A0A792271
:052B1F007F02021729EE
:102BFB003F065B4F666D7D077F6F777C395E797122
:102B2400900A247403F0A374FFF07B017A0A7924D9
:052B34007F07021729D4
:102C0B003F065B4F666D7D077F6F777C395E797111
:1024E800900A267403F0A374FFF07B017A0A792618
:1024F8007F07121729900A267403F0A37480F07BD3
:10250800017A0A79267F02121729900A267403F0A5
:10251800A37401F0FB7A0A79267F03121729900A1F
:10252800267403F0A314F07B017A0A79267F03123C
:102538001729900A267403F0A304F07B017A0A791C
:0F254800267F03121729D2A7D2B0D2B1D2B22266
:10202000900A02EDF0AB07AA067C037DE812126469
:10203000A3EFF07C037DE8AF03AE021212647E00D2
:102040007F64CFCDCFCECCCE121264A3EFF07C0054
:102050007D64AF03AE021212647E007F0ACFCDCF43
:10206000CECCCE121264A3EFF0AE02AF037C007DA3
:102070000A121264A3EDF0C2A7900A03E0902C0BA1
:1020800093F5F8900A02E0FF7E00122AB5D2A7C2AB
:10209000B0900A04E0902C0B93F5F8900A02E0FF50
:1020A0007E00122AB5D2B0C2B1900A05E0902C0B86
:1020B00093F5F8900A02E0FF7E00122AB5D2B1C271
:1020C000B2900A06E0902C0B93F5F8900A02E0FF1C
:0820D0007E00122AB5D2B222F3
:1000660048098DFEFDFBF7EFDFBF7F48099580400D
:0600760020100804020145
:10298D00900A287403F0A374FFF07B017A0A79286A
:10299D007F07121729900A2974FFF07B017A0A79B3
:0629AD00287F0602172935
:102A1600748D2FF582E43409F583E0F5E874952D7D
:0B2A2600F582E43409F583E0F5F822A6
:10007C00602009410001000200040008001000206B
:10008C000040008001000200040008001000200065
:10009C0040008000602009210001000200040008DB
:1000AC000010002000400080010002000400080045
:0800BC0010002000400080004C
:10255700900A2A7403F0A374FFF07B017A0A792AA0
:102567007F07121729900A2B74FFF07B017A0A79EB
:102577002A7F06121729900A2B74E7F07B017A0A43
:10258700792AE4FF121729900A2B74F8F07B017A55
:102597000A792A7F01121729900A2B743FF07B01D1
:0925A7007A0A792A7F0302172940
:101F5B00AB05AA04EF1392FFEFA2E192FEA2E2926D
:101F6B00FDA2E392FCA2E492FBA2E592FAA2E69216
:101F7B00F93392F8EE1392EFEEA2E192EEA2E29217
:101F8B00EDA2E392ECA2E492EBA2E592EAA2E69236
:101F9B00E93392E8EB54FE4A24FF9281EB54FD4A5D
:101FAB0024FF9282EB54FB4A24FF9285EB54F74AB1
:101FBB0024FF9286EB54EF4A24FF9287EB54DF4ABF
:101FCB0024FF9280EB54BF4A24FF9293EB547F4A39
:101FDB0024FF9294EA54FE4B24FF9295EA54FD4B56
:101FEB0024FF9296EA54FB4B24FF9297EA54F74B4B
:101FFB0024FF92B0EA54EF4B24FF92B1EA54DF4B2B
:10200B0024FF92B2EA54BF4B24FF92B4EA547F4BA5
:05201B0024FF92B52234
:10282B00EF25E0FFEE33FE74412FF58274093EF580
:10283B0083E0FEA3E0FFC006C007ED25E0FFEC330D
:10284B00FE74412FF58274093EF583E0FCA3E0FD95
:07285B00D007D006021F5B4D
:10001E00181807080808070000000000FF0000007D
:10002E000000000E00FF00000000FF000E00FF00A9
:10003E000000FFF5FBF1FF0000FE08FE0A0AFF00BC
:10004E00000400FF000A1100001F111F11111F00F4
:10286200E4900A2CF0A374FFF07B017A0A792C7FA2
:1028720006121729900A2D740FF07B017A0A792C1F
:102882007F07121729900A2D7402F07B017A0A79C8
:062892002CE4FF021729EF
:082A6700C2FB8FE8D2817F055C
:102A6F00AD071FED600BE4FEEEC3940150F20E8034
:022A7F00F7223C
:012C81002230
:0B2C3800122C81C2F9122A67C281220F
:0B2C4300122C81D2F9122A67C28122F4
:05005E007F01022C38B7
:102A31007F06122C387F40122C38E4FCEC90001EEB
:0B2A410093FF122C430CECB440F22277
:1029D700E4F5CCF5CB7F38122C387F01122C387FE9
:1029E70002122C387F06122C387F0C122C38022A40
:0129F70031AE
:0E2C2A00AC05EF4480FF122C38AF04022C439F
:1027BA00900A17EBF0A3EAF0A3E9F0EF4480FF12C6
:1027CA002C38900A17E0FBA3E0FAA3E0F912120CE6
:1027DA006017900A17A3E475F0011212CFA9F0FA54
:0A27EA0012120CFF122C4380D922BA
:1000C40065F00031000000000000000000000000A6
:1000D40000000000000000F80000000000000033F1
:1000E4000000000000100C02100C020000000000D0
:1000F400000000000040C07840C0780000043F04C5
:10010400043F040000708888FC0830000018202098
:10011400FF211E00F008F0806018000000310C037D
:100124001E211E0000F00888700000001E21232CF0
:100134001927211000120E0000000000000000002A
:1001440000000000000000E01804020000000007A6
:100154001820400000020418E000000000402018AD
:1001640007000000404080F0804040000202010F80
:100174000102020000000000E00000000001010193
:100184000F01010100000000000000000090700059
:100194000000000000000000000000000001010158
:1001A40001010100000000000000000000303000E8
:1001B4000000000000000000C038040000601807C0
:1001C4000000000000E010080810E000000F1020FC
:1001D40020100F0000001010F80000000000202084
:1001E4003F202000007008080808F0000030282490
:1001F40022213000003008080888700000182021EF
:1002040021221C000000804030F800000006052474
:10021400243F242400F88888880808000019202036
:1002240020110E0000E0108888900000000F1120BB
:1002340020201F0000180808886818000000003EED
:10024400010000000070880808887000001C22214A
:1002540021221C0000F008080810E000000112220E
:1002640022110F00000000C0C00000000000003098
:10027400300000000000008000000000000000E0EA
:10028400000000000000804020100800000102046B
:10029400081020000040404040404000000202029C
:1002A4000202020000081020408000000020100814
:1002B4000402010000704808088870000000003043
:1002C40037000000C030C828E810E00007182728CD
:1002D4002F2817000000C038E0000000203C230253
:1002E4000227382008F8888888700000203F2020E2
:1002F40020110E00C0300808080838000718202014
:100304002010080008F808080810E000203F20200A
:1003140020100F0008F88888E8081000203F2020EB
:100324002320180008F88888E8081000203F2000DF
:1003340003000000C0300808083800000718202017
:10034400221E020008F808000008F808203F2101D6
:1003540001213F20000808F8080800000020203F81
:100364002020000000000808F8080800C0808080F1
:100374007F00000008F888C028180800203F2001EA
:100384002638200008F8080000000000203F202044
:100394002020300008F8F800F8F80800203F013E5B
:1003A400013F200008F830C00008F808203F200072
:1003B40007183F00E01008080810E0000F10202084
:1003C40020100F0008F808080808F000203F210159
:1003D40001010000E01008080810E0000F102828B0
:1003E40030504F0008F8888888887000203F20002B
:1003F400030C3020007088080808380000382021D9
:1004040021221C00180808F8080818000000203FE2
:100414002000000008F808000008F808001F202049
:1004240020201F000878880000C83808000007381A
:100434000E01000008F800F800F8080000033E016F
:100444003E030000081868808068180820302C03D8
:10045400032C30200838C800C83808000000203FAA
:100464002000000010080808C83808002038262199
:1004740020201800000000FE020202000000007F9D
:1004840040404000000438C00000000000000001AB
:100494000638C00000020202FE0000000040404096
:1004A4007F000000000004020204000000000000BD
:1004B4000000000000000000000000008080808038
:1004C4008080808000020204000000000000000020
:1004D4000000000000008080800000000019242437
:1004E400123F200010F0008080000000003F112027
:1004F40020110E000000008080800000000E1120FA
:1005040020201100000080808090F000001F202037
:1005140020103F200000808080800000001F2424E1
:1005240024241700008080E0909020000020203FC9
:10053400202000000000808080808000006B949464
:100544009493600010F0008080800000203F210020
:1005540000203F2000809898000000000020203FE9
:1005640020200000000000809898000000C08080D7
:10057400807F000010F0000080808000203F24066F
:1005840029302000001010F8000000000020203F57
:10059400202000008080808080808000203F200018
:1005A4003F20003F8080008080800000203F2100A9
:1005B40000203F200000808080800000001F202059
:1005C40020201F00808000808000000080FF912098
:1005D40020110E000000008080008000000E112019
:1005E4002091FF80808080008080800020203F2137
:1005F40020000100000080808080800000332424DB
:1006040024241900008080E0808000000000001F86
:10061400202010008080000000808000001F202027
:1006240020103F20808080008080800000030C30F8
:100634000C0300008080008080008080010E300C5C
:100644000738060100808080008080000020310E81
:100654002E31200080808000008080800081867898
:100664001806010000808080808080000021302CEA
:10067400222130000000000000FC02020000000003
:10068400013E404000000000FF00000000000000A8
:10069400FF0000000202FC000000000040403E0198
:1006A4000000000000020102020402000000000039
:1006B4000000000060310000B1B1BEA9BDDCB4B4DB
:1006C400D3C0BAE3BFC6BCBCD4B6B3CCD4C6B6CBD5
:1006D400D3B2BCFEC6BDCCA8BBB6D3ADC0CFCAA6F0
:1006E400D1A7C9FACAB9D3C30063000621002020E8
:1006F4002020FF000000FF402010080000206020A0
:100704001010FF0000003F40404040780004040403
:10071400E424242526242424E404040400004020A2
:100724001B0242827E0202020B10600000000808D5
:1007340088482818FF182848880808000082423191
:1007440000001060071060000011E202004020D099
:100754004C4344C8102000F80000FF000000003F94
:10076400404448474070000F40807F0000004040F4
:100774004848C809FAC40080402010000020201016
:10078400080641807F000304081020200000E000D8
:10079400FF102002F29292929292F2020001000063
:1007A400FF0000404F44444444444F40002424A4E8
:1007B400FEA3220022CC0000FF0000000008060176
:1007C400FF00010404040404FF02020200101010DC
:1007D400FF109008888888FF88888808000444826D
:1007E4007F01808040432C10284681800040404295
:1007F400CC002022E22222E22222200000008040BB
:100804003F40A0988780809FA0A0BC80002424A49F
:10081400FE2322003E22222222223E00000806015C
:10082400FF0106404949497F494949410040404246
:10083400424242C242424242424240400000207090
:10084400282423202020242830E0000000C80809A0
:100854000EE808405E5050DF50505E4000206F208C
:100864001C131000FE027F027E82FE00000484E45A
:100874005C44C400F29292FE9292F2020002017F62
:1008840010103F808F54245F448487800000806070
:10089400F80780601C1010FF101010000001000009
:1008A400FF000202020202FF020202020000020230
:1008B40012620202FE02024232020200000101013F
:1008C40001010101FF01010101010101000040E0FA
:1008D40050484443404040485060C000000000007D
:1008E400FE42424242424242FE00000000042444CE
:1008F40084649C40300FC8080828180000100806BB
:1009040001824C2018060106182040800040404215
:10091400CC0000FC040200FC0404FC0000004020A5
:100924001F20404F4442407F424443400020202443
:10093400242424BF64243428242220200010080402
:10094400023F454444424242417800000000FC001A
:1009540000FF0002E22222FE2222E202000087407F
:10096400300F00001F0000FF08100F00004030117E
:10097400969090919690909814135030000404042B
:10098400040444847E060504040404040080403006
:100994001E101010FF1010101010100000404042E4
:1009A400424242427F42424242424040008060F81A
:1009B4000704E4242424FF242424E404000000FF86
:1009C4000080814529112F4141818180000000FE72
:1009D40022222222FE22222222FE00000080601F08
:0D09E400020202027F020242827F00000038
:10274200E4900A2EF0A374FFF07B017A0A792E7FBF
:1027520006121729E4900A2EF0A3740FF07B017A77
:102762000A792E7F07121729E4900A2EF0A3740229
:0C277200F07B017A0A792EE4FF0217299F
:082A8100C2F98FE8D2817F0544
:102A8900AD071FED600BE4FEEEC3940150F20E801A
:022A9900F72222
:012C8200222F
:0B2C4E00122C82C2F8122A81C28122DF
:0B2C5900122C82D2F8122A81C28122C4
:1029B300D2FBD2FCE4FCEC24B8FF122C4E7F401275
:1029C3002C4EE4FBE4FF122C590BEBB440F60CEC59
:0429D300B408E3223F
:102A4C00E4F5CBC2FBC2FCC2817F0A122A897F3F0C
:0B2A5C00122C4E7FC0122C4E0229B33A
:101D87009009D1EFF09009D3EBF09009D2EDF0C3B1
:101D970094405007E49009DAF0800D9009D2E024CE
:101DA700C0F09009DA7401F0E49009D8F09009D4F2
:101DB700E0FF9009D8E0FEC39F4003021E80900910
:101DC700DAE06006C2FCD2FB8004C2FBD2FC9009B9
:101DD700D1E024B82EFF122C4EA3E02440FF122C92
:101DE7004EE49009D9F09009D3E0F99009D9E0FFC2
:101DF700C399507CEFFD7C009009D2E02DFFE433BE
:101E0700FEC3EF9440EE64809480500A9009D8E0B6
:101E170089F0A42D80369009DAE0704BC2FCD2FB22
:101E27009009D1E024B8FF9009D8E02FFF122C4E7B
:101E3700A3E0FF9009D2E02FFF122C4EA3E0FF9002
:101E470009D8E08FF0A4FFA3E07C002FFFEC35F06A
:101E5700FE9009D5E0FBA3E0FAA3E0F98F828E8319
:101E6700121225FF122C599009D9E004F0021DED3A
:0A1E77009009D8E004F0021DB42227
:062C7800C3EF9420FF22CF
:10289800E4FF74002FF582E43400F583E0FE602144
:1028A80012120CFDEEB50515900001121225FE74EA
:1028B800012FF582E43400F583E06E60040F0F8089
:0628C800D1EFC313FF2253
:101E81009009FCEFF0A3EDF0A3EBF0A3EAF0A3E9D6
:101E9100F0E4A3F09009FEE0FBA3E0FAA3E0F9A3CC
:101EA100E0F582758300121225FF7003021F5AC3E9
:101EB10094805038122C78EF75F010A42431F97405
:101EC1000035F0FA9009D57401F0A3EAF0A3E9F026
:101ED1009009FCE0FFA3E0FD9009D47402F07B08B7
:101EE100121D879009FDE02408F080529009FEE060
:101EF100FBA3E0FAA3E0F9A3E0FF7E00E92FF9EEEE
:101F01003AFA122898EF75F020A42421F9740635C5
:101F1100F0FA9009D57401F0A3EAF0A3E9F0900971
:101F2100FCE0FFA3E0FD9009D47402F07B10121DC8
:101F3100879009FDE02410F0900A01E004F0900977
:101F4100FDE0D394784009E4F09009FCE02402F02C
:0A1F5100900A01E004F0021E952240
:102B7600E4900A30F0A374F0F07B017A0A79307F92
:042B86000102172908
:042A9B007F017E0039
:102A9F00EF1FAA0670011E4A600BE4FDEDC39405FB
:062AAF0050EE0D80F7223D
:10265E00900A07E0FCA3E0FDA3E0FEA3E0FF121446
:01266E005912
:10266F00AC07E4F9C295FBEC30E003D38001C392D1
:10267F0096D295122A9BC295ECC313FC122A9B305B
:10268F0097047F0180027F00EFA803088002C33305
:0F269F00D8FC49F90BEBB408CE122A9BAF0122ED
:0A2C6400C2947F0612266FD294225C
:0A2C6E00C2947F0412266FD2942254
:102BB100C2947F0512266FE4FF12266FEF20E0F723
:032BC100D2942289
:10290400900A0712146C122C64C2947F2012266F52
:10291400781012265E780812265E900A07A3A3A3F5
:10292400E0FF12266FD2947F647E00122A9F122B3E
:04293400B1022C6E52
:10246D009009DB12146C9009DFEBF0A3EAF0A3E9FD
:10247D00F0C2947F0312266F9009DBE0FCA3E0FD10
:10248D00A3E0FEA3E0FF781012145912266F9009F5
:10249D00DBE0FCA3E0FDA3E0FEA3E0FF780812144F
:1024AD005912266F9009DBA3A3A3E0FF12266F90AC
:1024BD0009E274FFF5F01212CF45F0601BE4FF1234
:1024CD00266F9009DFE0FBA3E475F0011212CFA98E
:0B24DD00F0FAEF12125280D7D29422C6
:102189009009E412146C9009E8EBF0A3EAF0A3E9D2
:10219900F0122C64C2947F0212266F9009E4E0FCCD
:1021A900A3E0FDA3E0FEA3E0FF7810121459122664
:1021B9006F9009E4E0FCA3E0FDA3E0FEA3E0FF7853
:1021C9000812145912266F9009E4A3A3A3E0FF1281
:1021D900266FD39009ECE094009009EBE09401405C
:1021E900067401F0A3E4F09009EB74FFF5F0121204
:1021F900CF45F060209009E8E0FBA3E475F00112F7
:1022090012CFA9F0FA12120CFF12266F7F057E0079
:10221900122A9F80D2D2947F647E00122A9F022CB8
:012229006E46
:1009FC0000000000000000000000000000000000EB
:100A0C00000000101010101010100000101000004A
:100A1C000012242448000000000000000000000028
:100A2C000000001212127E2424247E2424240000B0
:100A3C000000083C4A4A48380C0A0A4A4A3C080852
:100A4C0000000044A4A8A8B0541A2A2A4A44000062
:100A5C0000000030484848506EA4949889760000F5
:100A6C00006020204000000000000000000000009A
:100A7C0000020408081010101010100808040200DE
:100A8C00004020101008080808080810102040002A
:100A9C00000000001010D63838D6101000000000EE
:100AAC0000000000000808087F080808000000008B
:100ABC00000000000000000000000000602020404A
:100ACC0000000000000000007E000000000000009C
:100ADC00000000000000000000000000606000004A
:100AEC0000000204040408081010102020404000EC
:100AFC0000000018244242424242424224180000A4
:100B0C00000000083808080808080808083E00001B
:100B1C000000003C4242420204081020427E0000C9
:100B2C000000003C4242020418040242423C000015
:100B3C00000000040C0C142424447F04041F000047
:100B4C000000007E404040784402024244380000DD
:100B5C00000000182440405C62424242221C00000B
:100B6C000000007E42040408081010101010000051
:100B7C000000003C4242422418244242423C000005
:100B8C000000003844424242463A02022418000057
:100B9C0000000000000018180000000018180000E9
:100BAC0000000000000000100000000000101010F9
:100BBC00000000020408102040201008040200006D
:100BCC000000000000007E00007E0000000000001D
:100BDC00000000402010080402040810204000000F
:100BEC000000003C4242620408080800181800008B
:100BFC0000000038445AAAAAAAAAAA5C423C0000E7
:100C0C000000001010182828243C444242E7000041
:100C1C00000000F8444444784442424244F8000046
:100C2C000000003E424280808080804244380000B8
:100C3C00000000F8444242424242424244F8000062
:100C4C00000000FC424848784848404242FC000002
:100C5C00000000FC424848784848404040E0000012
:100C6C000000003C44448080808E84444438000062
:100C7C00000000E7424242427E42424242E700000C
:100C8C000000007C1010101010101010107C0000D0
:100C9C000000003E0808080808080808080888F042
:100CAC00000000EE444850705048484444EE0000A8
:100CBC00000000E0404040404040404042FE000008
:100CCC00000000EE6C6C6C6C6C54545454D60000E8
:100CDC00000000C7626252524A4A4A4646E200008D
:100CEC000000003844828282828282824438000072
:100CFC00000000FC424242427C40404040E0000088
:100D0C000000003844828282828282B24C38060013
:100D1C00000000FC4242427C4848444442E300004C
:100D2C000000003E4242402018040242427C000077
:100D3C00000000FE9210101010101010103800005F
:100D4C00000000E74242424242424242423C000022
:100D5C00000000E742424424242828181010000008
:100D6C00000000D654545454546C282828280000F1
:100D7C00000000E7422424181818242442E700003D
:100D8C00000000EE44442828101010101038000009
:100D9C000000007E840408081020204242FC000061
:100DAC00001E1010101010101010101010101E003B
:100DBC000000402020201010100808040404020237
:100DCC0000780808080808080808080808087800C7
:100DDC0000182400000000000000000000000000CB
:100DEC00000000000000000000000000000000FFF8
:100DFC000060100000000000000000000000000077
:100E0C000000000000000038440C34444C36000054
:100E1C0000000000C0404058644242426458000048
:100E2C00000000000000001C22404040221C00007A
:100E3C00000000000602023E42424242463B0000D5
:100E4C00000000000000003C42427E40423C00009A
:100E5C00000000000C12107C10101010107C000010
:100E6C00000000000000003E444438403C42423C3C
:100E7C0000000000C040405C6242424242E7000079
:100E8C00000000303000007010101010107C0000BA
:100E9C000000000C0C00001C04040404040444783E
:100EAC0000000000C040404E4850704844EE000026
:100EBC00000000107010101010101010107C0000AA
:100ECC0000000000000000FE4949494949ED0000BE
:100EDC0000000000000000DC6242424242E70000D9
:100EEC00000000000000003C42424242423C000034
:100EFC0000000000000000D864424242645840E008
:100F0C00000000000000001A26424242261A020786
:100F1C0000000000000000EE3220202020F800002D
:100F2C00000000000000003E42403C02427C0000F9
:100F3C00000000000010107C10101010120C0000AB
:100F4C0000000000000000C642424242463B000046
:100F5C0000000000000000EE44442828101000009F
:100F6C0000000000000000DB894A5A5424240000D1
:100F7C00000000000000007624181818246E0000F1
:100F8C0000000000000000E7422424181810106034
:100F9C00000000000000007E44081010227E0000BB
:100FAC0000030404040404040804040404040300FB
:100FBC0008080808080808080808080808080808A5
:100FCC0000C0202020202020102020202020C00025
:100FDC00205A040000000000000000000000000087
:100FEC00B1B1BEA9BDDCB4B4D3C0BAE3BFC6BCBCFE
:100FFC00D3D0CFDEB9ABCBBED4B6B3CCD4C6B6CB84
:10100C00044004400440044404487C500460044000
:10101C0004400440044004421C42E442443E0400A8
:10102C0002000100FFFE000000001FF01010101065
:10103C0010101FF0010011101108210445040200CA
:10104C000100010001007FFC038005400920111004
:10105C002108C10601000000248822444244800477
:10106C000804080414041224212440A4BE242224BD
:10107C00222422242A242424208420841F9400083F
:10108C000200010000801F00010401087D9005A0F2
:10109C0005400940092011102108C1060500020075
:1010AC00100013FE1000100019FC5504510451FCE3
:1010BC009104110411FC11041000100013FE100017
:1010CC0008101D10F09010901010FD10109038901A
:1010DC003410501E53F090101010101010101010EF
:1010EC0010201020102013FEFC201020102015FCC6
:1010FC0018843088D0481050102010505188260683
:10110C0002000200FFFE040004000FF0081018108B
:10111C002FF0481088100FF0081008100850082005
:10112C0000007BF84A08520853F8620852084BF842
:10113C004A444A486A3052204210428843064200D0
:10114C0000800480048008400840102020104208D1
:10115C00820604000440082010203FF0101000000C
:10116C0000003FF8000800087FE8000800081F880E
:10117C0010881088108810881F881088002800108C
:10118C00000023F810001000000007FCF1201120D3
:10119C0011201120112412241224141C280047FEA3
:1011AC0008001DFCF10411041104FDFC10003000BA
:1011BC0039FE5420542091FC1020102013FE1000F6
:1011CC0000003FF80000000000000000FFFE0200DD
:1011DC00040004000840102020107FF820080008AC
:1011EC00202011241124FD2401FC08008BFE8820F2
:1011FC00484049FC515451541D54E1544154010C84
:10277E00E4900A32F0A374FFF07B017A0A79327F7B
:10278E0006121729E4900A32F0A3740FF07B017A37
:10279E000A79327F07121729E4900A32F0A37402E5
:0C27AE00F07B017A0A7932E4FF0217295F
:102BD700AD071FED600BE4FEEEC3940150F20E80CB
:022BE700F722D3
:102BE900C2C9C282C2808FE8EEF5F8D2C97F080255
:022BF9002BD7D8
:052AE300E0FEA3E0FF8E
:102AE800C2C9D282C2808FE8EEF5F8D2C97F05024A
:022AF8002BD7DA
:1026FA009009EDEEF0A3EFF0A3ECF0A3EDF07F204C
:10270A007E00122BE99009ED122AE37F217E001246
:10271A002BE9AE02AF03122AE87F227E00122BE9D0
:10272A00A3122AE37F237E00122BE99009F3122ACF
:08273A00E37F2F7E00022BE972
:10293800AB05AA048F828E837F247E00122BE9AE1A
:1029480083AF82122AE87F257E00122BE9AE02AF00
:0B29580003122AE87F2F7E00022BE90B
:0829F8009009A5E0FAA3E0FB41
:102A0000900A34EAF0A3EBF0122938900A34E0FE81
:062A1000A3E0FF022AE82A
:10260800900A0BEEF0A3EFF09009F3E4F0A374EF57
:10261800F07B3F7A01E4FDFCFFFE1226FAE4900A03
:102628000DF0A3F0E4FBFA900A0B122AE30BBB00AF
:10263800010AEB64F04A70EF900A0EE004F07006AD
:10264800900A0DE004F0C3900A0EE09440900A0D41
:06265800E0940140CF22D6
:0828CE009FFFE09EFEE4FCFD0B
:1028D600900A0F12146C900A0FE0FCA3E0FDA3E02F
:1028E600FEA3E0FFEC33900A0F5007A3A3A3E00278
:0E28F600143AE0FCA3E0FDA3E0FEA3E0FF2205
:1014A50090099FECF0A3EDF090099DEEF0A3EFF00D
:1014B5009009A1EAF0A3EBF0B5072CEEB50228A33D
:1014C500E0FEA3E0FF90099FE0FCA3E0FDB5071750
:1014D500ECB5061390099DE0FEA3E0FF9009A5E099
:1014E500FAA3E0FB022A0090099DE0FEA3E0FFC3FA
:1014F5009009A2E09009A11228CEC004C005C0063B
:10150500C00790099FE0FEA3E0FFC39009A4E09007
:1015150009A31228CEA804A905AA06AB07D007D0AF
:1015250006D005D004D31214485003021629900999
:10153500A3E0FEA3E0FF90099FE0FCA3E0FDD39F9D
:10154500EC9E403F9009ABECF0A3EDF090099FEEC7
:10155500F0A3EFF09009A3ECF0A3EDF090099DE066
:10156500FEA3E0FF9009ABEEF0A3EFF09009A1E038
:10157500FDA3E090099DCDF0A3EDF09009A1EEF05B
:10158500A3EFF090099FE0FFA3E09009A9CFF0A396
:10159500EFF09009A3E0FEA3E0FF9009A9E0FCA30A
:1015A500E0FDD39FEC9E400302172290099FE0FEC9
:1015B500A3E0FFC3ED9FFFEC9EFE90099DE0FCA319
:1015C500E0FDC39009A2E09DFD9009A1E09CFC12FD
:1015D5001478C006C00790099FE0FEA3E0FFC39002
:1015E50009A4E09FFF9009A3E09EAB07FAE4F9F890
:1015F500D007D0061213A890099EE02FFF90099DF1
:10160500E03EFE9009A7F0A3EFF0A3E0FCA3E0FD08
:101615001229F89009AAE004F070069009A9E004DF
:10162500F00215979009A1E0FEA3E0FF90099DE067
:10163500FCA3E0FDD39FEC9E4044A3E0FEA3E0FFA6
:101645009009ABEEF0A3EFF09009A3E0FBA3E090C7
:10165500099FCBF0A3EBF09009A3EEF0A3EFF09078
:1016650009ABECF0A3EDF09009A1E0FFA3E0900930
:101675009DCFF0A3EFF09009A1ECF0A3EDF0900958
:101685009DE0FFA3E09009A7CFF0A3EFF09009A19B
:10169500E0FEA3E0FF9009A7E0FCA3E0FDD39FECEB
:1016A5009E507A90099DE0FEA3E0FFC3ED9FFFECFD
:1016B5009EFEA3E0FCA3E0FDC39009A4E09DFD9080
:1016C50009A3E09CFC121478C006C00790099DE0B0
:1016D500FEA3E0FFC39009A2E09FFF9009A1E09E51
:1016E500AB07FAE4F9F8D007D0061213A89009A0C1
:1016F500E02FFF90099FE03E9009A9F0FCA3EFF0D1
:10170500FD9009A7E0FEA3E0FF1229F89009A8E0E3
:0E17150004F070069009A7E004F0021692227C
:10222A009009ADEEF0A3EFF09009B1EAF0A3EBF05C
:10223A009009AFECF0A3EDF09009ADE0FAA3E0FF4E
:10224A00AE02C006C0072407FBE43AFAA3E0FEA3E5
:10225A00E0240FFFE43E9009F3F0A3EFF0D007D09B
:10226A00061226FAE49009B8F09009B8E0FFC39480
:10227A001050489009B5E0FBA3E0FAA3E0F98F8279
:10228A00758300121225FCE4FB74807E00A8030803
:10229A008006CEA2E713CE13D8F8FFECF582EF55ED
:1022AA008260059009B180039009B3122AE30BEB0F
:0C22BA00B408D69009B8E004F080AE2211
:1022C6009009B9EEF0A3EFF09009BDEAF0A3EBF0A8
:1022D6009009BBECF0A3EDF09009B9E0FAA3E0FF9A
:1022E600AE02C006C007240FFBE43AFAA3E0FEA341
:1022F600E0240FFFE43E9009F3F0A3EFF0D007D0FF
:10230600061226FAE49009C4F09009C4E0FFC394CB
:102316002050489009C1E0FBA3E0FAA3E0F98F82C0
:10232600758300121225FCE4FB74807E00A8030866
:102336008006CEA2E713CE13D8F8FFECF582EF5550
:102346008260059009BD80039009BF122AE30BEB5A
:0C235600B408D69009C4E004F080AE2268
:092C1B00F582758300121225FFF9
:062C2400C3EF9420FF2223
:10296300E4FFEF900FEC93FE601B12120CFDEEB52B
:10297300050F900001121225FEEF900FED936E608C
:0A298300040F0F80DDEFC313FF22E5
:101C51009009C5EEF0A3EFF0A3ECF0A3EDF0A3EA39
:101C6100F0A3EBF0E49009D0F09009CDE0FBA3E004
:101C7100FAA3E0F9A3E0F582758300121225FF7043
:101C810003021D86C39009C6E094309009C5E09413
:101C9100014012E4F0A3F09009C8E02410F090098B
:101CA100C7E03400F0C39009C8E094E09009C7E0B0
:101CB10094004004E4F0A3F0EFC394809009CDE0D8
:101CC100FBA3E0FAA3E0F9A3E05052122C1BEF753D
:101CD100F010A424FCF9740935F0FA9009B574FFE9
:101CE100F0A3EAF0A3E9F09009C7E0FCA3E0FDA3AB
:101CF100E0FAA3E0FBA3E0FFA3E09009B3CFF0A3D8
:101D0100EFF09009C5E0FEA3E0FF12222A9009C678
:101D1100E02408F09009C5E03400F0805FFF7E0008
:101D2100E92FF9EE3AFA122963EF75F020A4240C99
:101D3100F9741035F0FA9009C174FFF0A3EAF0A329
:101D4100E9F09009C7E0FCA3E0FDA3E0FAA3E0FB02
:101D5100A3E0FFA3E09009BFCFF0A3EFF09009C586
:101D6100E0FEA3E0FF1222C69009C6E02410F09025
:101D710009C5E03400F09009D0E004F09009D0E00A
:061D810004F0021C6A22BE
:1020D8009009F5EBF0A3EAF0A3E9F012120CFF90D7
:1020E80009F5E0FBA3E475F0011212B9A9F0FA12A0
:1020F800120C9009FBF0EFC394A1401AE0FE94A1E2
:102108004014EEF46010EFD394F7500AEF94A9400E
:1021180021EF94B0501CE4FE9009F8E0FBA3E475AD
:10212800F0011212CFA9F0FAE41212520EEEB42006
:10213800E7229009FBE0245FF0745F2FFF7E007CAC
:10214800007D5E121478A804A905AA06AB07E0FF73
:10215800E4FCFDFEEB2FFFEE3AFEED39FDEC38FC1A
:10216800E47B20FAF9F812131D9009F8E0FBA3E0CC
:10217800FAA3E0F99009E2E4F0A37420F012246DC8
:012188002234
:101B1800900961EEF0A3EFF0A3ECF0A3EDF0A3EAD7
:101B2800F0A3EBF0E490096CF0900969E0FBA3E006
:101B3800FAA3E0F9A3E0F582758300121225FF707D
:101B480003021C50C3900962E09430900961E0944C
:101B5800014012E4F0A3F0900964E02410F0900929
:101B680063E03400F0C3900964E094E0900963E016
:101B780094004004E4F0A3F0EFC39480900969E076
:101B8800FBA3E0FAA3E0F9A3E05052122C1BEF7577
:101B9800F010A424FCF9740935F0FA9009B574FF23
:101BA800F0A3EAF0A3E9F0900963E0FCA3E0FDA349
:101BB800E0FAA3E0FBA3E0FFA3E09009B3CFF0A312
:101BC800EFF0900961E0FEA3E0FF12222A9009627B
:101BD800E02408F0900961E03400F08062FF7E00A4
:101BE800E92FF9EE3AFA9009F87401F0A37409F0B4
:101BF800A3746DF01220D8900961E0FEA3E0FFA362
:101C0800E0FCA3E0FD900967E0FBA3E09009BFCBEF
:101C1800F0A3EBF0A37401F0A37409F0A3746DF0C2
:101C2800900965E0FAA3E0FB1222C6900962E0245D
:101C380010F0900961E03400F090096CE004F09035
:091C4800096CE004F0021B3122DA
:102B3900900A367403F0A3741EF07B017A0A793681
:052B49007F06021729C0
:06000300D2EAC2EBC2ECE0
:10000900E4FEEEC39F500AE4FD0DEDB40AFB0E8039
:02001900F122D2
:1026AE00AB07AA06D2E9C2EA120005D2E91200036C
:1026BE00C2E9120003C2E9D2EAD2EBC2EC1200095F
:1026CE00C2E9C2EAD2EBC2EC120009C2E9C2EAD2F6
:1026DE00EBD2EC120009C2E9C2EAC2EBD2EC120054
:0C26EE0009D2E9C2EAC2EBD2EC020009FA
:0A09F100420A130000420A1500320A
:102B8A00E4900A38F0A37440F07B017A0A7938E4B9
:042B9A00FF021729F6
:102BC400438E40E4F589758BD4758DFED28ED2ABDD
:032BD400D2AF225B
:03001B000225B00B
:1025B000C0E0C083C082C0D075D000C006C0079004
:1025C0000A14E004F07006900A13E004F0C3900AC5
:1025D00014E094D0900A13E094074004E4F0A3F0D0
:1025E000900A15E0FEA3E0FFC3900A14E09F900A52
:1025F00013E09E4004C2868002D286D007D006D067
:08260000D0D082D083D0E0327B
:0300000002236276
:0C236200787FE4F6D8FD7581070223A9FE
:10120C00BB010689828A83E0225002E722BBFE02E0
:09121C00E32289828A83E4932213
:10122500BB010CE58229F582E5833AF583E022507E
:1012350006E92582F8E622BBFE06E92582F8E222C8
:0D124500E58229F582E5833AF583E49322E2
:10125200BB010689828A83F0225002F722BBFE017B
:02126200F32275
:10126400BC000BBE0029EF8DF084FFADF022E4CC6E
:10127400F875F008EF2FFFEE33FEEC33FCEE9DEC37
:10128400984005FCEE9DFE0FD5F0E9E4CEFD22ED7D
:10129400F8F5F0EE8420D21CFEADF075F008EF2FC7
:1012A400FFED33FD4007985006D5F0F222C398FDB8
:0512B4000FD5F0EA2255
:1012B900C5F0F8A3E028F0C5F0F8E58215827002C0
:0612C9001583E038F0225D
:1012CF00A3F8E0C5F025F0F0E582158270021583D2
:0612DF00E0C838F0E8222F
:1012E500BB0110E58229F582E5833AF583E0F5F047
:1012F500A3E0225009E92582F886F008E622BBFE24
:101305000AE92582F8E2F5F008E222E5832AF58369
:08131500E993F5F0A3E993222E
:10131D00E88FF0A4CC8BF0A42CFCE98EF0A42CFC6F
:10132D008AF0EDA42CFCEA8EF0A4CDA8F08BF0A4ED
:10133D002DCC3825F0FDE98FF0A42CCD35F0FCEB4C
:10134D008EF0A4FEA9F0EB8FF0A4CFC5F02ECD3911
:0F135D00FEE43CFCEAA42DCE35F0FDE43CFC227E
:10136C0075F008758200EF2FFFEE33FECD33CDCC38
:10137C0033CCC58233C5829BED9AEC99E5829840BB
:10138C000CF582EE9BFEED9AFDEC99FC0FD5F0D698
:10139C00E4CEFBE4CDFAE4CCF9A88222B800C1B9C2
:1013AC000059BA002DEC8BF084CFCECDFCE5F0CB00
:1013BC00F97818EF2FFFEE33FEED33FDEC33FCEB39
:1013CC0033FB10D703994004EB99FB0FD8E5E4F9F4
:1013DC00FA227818EF2FFFEE33FEED33FDEC33FCE1
:1013EC00C933C910D7059BE99A4007EC9BFCE99AD5
:1013FC00F90FD8E0E4C9FAE4CCFB2275F010EF2F1A
:10140C00FFEE33FEED33FDCC33CCC833C810D70719
:10141C009BEC9AE899400AED9BFDEC9AFCE899F854
:0E142C000FD5F0DAE4CDFBE4CCFAE4C8F922E7
:0E143A00C3E49FFFE49EFEE49DFDE49CFC22C3
:10144800EB9FF5F0EA9E42F0E99D42F0E89C45F0FA
:011458002271
:10145900E8600FECC313FCED13FDEE13FEEF13FF71
:03146900D8F12295
:0C146C00ECF0A3EDF0A3EEF0A3EFF022F3
:10147800EC8EF0A4CCC5F0CCCDF8EFA4CEC5F02D01
:10148800FDE43CFCE8A42EC8C5F03DFDE43CFCEFBF
:0D149800A4FFE5F028FEE43DFDE43CFC224D
:10236E000227F4E493A3F8E493A34003F68001F26A
:10237E0008DFF48029E493A3F85407240CC8C33370
:10238E00C4540F4420C8834004F456800146F6DF3F
:10239E00E4800B0102040810204080900066E47E69
:1023AE00019360BCA3FF543F30E509541FFEE49334
:1023BE00A360010ECF54C025E060A840B8E493A3FB
:1023CE00FAE493A3F8E493A3C8C582C8CAC583CA26
:1023DE00F0A3C8C582C8CAC583CADFE9DEE780BEDE
:0109FB0000FB
:00000001FF
