:102EC100122768122CC7122F4BD2AF7D017F01123E
:042ED1002D1080F749
:102768009014CF7403F0A374C0F07B017A1479CF6E
:10277800E4FF1219D89014CF7403F0A374D1F07F3A
:10278800011219D29014CF7403F0A3748CF07F0255
:102798001219D29014CF7403F0A37480F07B017ADD
:1027A8001479CF7F031219D89014CF7403F0A3744F
:1027B80034F07B017A1479CF7F041219D8E4F593A9
:1027C800F594F591F592F595F596F5B1F5B2F5B361
:0F27D800F5B4F5C9F5CAF5CBF5CCF5E1F5E2227C
:0619D2007B017A1479CFBD
:1019D800EFD3940740037F0122121495FED394039A
:1019E80040037F0222EF7041EE700B900001121449
:1019F800AEF452935294121495B4010B9000011254
:101A080014AE4293F45294121495FEB4020A900054
:101A1800011214AE42934294EEB4030D90000112E9
:101A280014AEFEF45293EE4294EF64017043121424
:101A380095FE700B9000011214AEF452915292EE82
:101A4800B4010B9000011214AE4291F45292121498
:101A580095B4020A9000011214AE429142921214F7
:101A680095B4030D9000011214AEFEF45291EE42AB
:101A780092EF64027043121495FE700B90000112ED
:101A880014AEF452955296EEB4010B900001121464
:101A9800AE4295F45296121495B4020A90000112BF
:101AA80014AE42954296121495B4030D900001129B
:101AB80014AEFEF45295EE4296EF6403704312148E
:101AC80095FE700B9000011214AEF452B152B2EEB2
:101AD800B4010B9000011214AE42B1F452B21214C8
:101AE80095B4020A9000011214AE42B142B2121427
:101AF80095B4030D9000011214AEFEF452B1EE42FB
:101B0800B2EF64047043121495FE700B900001123A
:101B180014AEF452B352B4EEB4010B900001121497
:101B2800AE42B3F452B4121495B4020A90000112F2
:101B380014AE42B342B4121495B4030D90000112CE
:101B480014AEFEF452B3EE42B4EF640570431214BF
:101B580095FE700B9000011214AEF452C952CAEEF1
:101B6800B4010B9000011214AE42C9F452CA121407
:101B780095B4020A9000011214AE42C942CA121466
:101B880095B4030D9000011214AEFEF452C9EE4252
:101B9800CAEF64067043121495FE700B9000011290
:101BA80014AEF452CB52CCEEB4010B9000011214D7
:101BB800AE42CBF452CC121495B4020A9000011232
:101BC80014AE42CB42CC121495B4030D900001120E
:101BD80014AEFEF452CBEE42CCEF640770431214FD
:101BE80095FF700B9000011214AEF452E152E2EF2F
:101BF800B4010B9000011214AE42E1F452E2121447
:101C080095B4020A9000011214AE42E142E21214A5
:101C180095B4030D9000011214AEFFF452E1EF42A7
:041C2800E27F002235
:102F25009014AD7403F0A3F07B017A1479AD7F059D
:032F35000219D8A6
:102E28007D037C09ED1D70011C144C70F7EF1F70B9
:072E3800011E144E70EA2296
:102E3F007D017C00ED1D70011C144C70F7EF1F70AD
:072E4F00011E144E70EA227F
:102C49009014B07410F09014AF7401F0FB7A1479F9
:102C5900AF7F031219D89014B07401F09014AF74B7
:0D2C690003F07B017A1479AF7F050219D8C2
:102ED5009014B17403F0A304F07B017A1479B17FE7
:042EE500030219D8F3
:102EE900E49014B3F0A374FFF07B017A1479B37FF3
:042EF900060219D8DC
:10220A009014D17410F0AFE8EF121701224A11228C
:10221A00691222891422A91822512122712222919B
:10222A002422B12822594122794222994422B948CA
:10223A0022618122818222A18422C188000022C9CE
:10224A00E49014D1F0807E9014D17401F0807690DD
:10225A0014D17402F0806E9014D17403F0806690E9
:10226A0014D17404F0805E9014D17405F0805690F5
:10227A0014D17406F0804E9014D17407F080469001
:10228A0014D17408F0803E9014D17409F08036900D
:10229A0014D1740AF0802E9014D1740BF080269019
:1022AA0014D1740CF0801E9014D1740DF080169025
:1022BA0014D1740EF0800E9014D1740FF080069031
:0B22CA0014D17410F09014D1E0FF223A
:102EFD00E49014B5F0A3740CF07B017A1479B57FCE
:042F0D00030219D8CA
:102E6D009014B77403F0A37480F07B017A1479B7D2
:052E7D007F020219D8DC
:101C2C00AD07EDD3940240037F0122ED6003021C4B
:101C3C00C0C28C9000021214AEB40104D2A980026E
:101C4C00C2A99000011214AEB40104D2B98002C230
:101C5C00B9121495FED3940340037F0222E58954F4
:101C6C00FC4EF5899000031214AEFFB40103538EA1
:101C7C007FEF7003438E80EFB40205438904800329
:101C8C005389FB9000041214AEB40105438F0180FC
:101C9C0003538FFE90000512156EE5F0F58C900045
:101CAC000512156EF58A9000071214AEB40102D21B
:101CBC008C7F0022ED64016003021D4BC28E9000EC
:101CCC00021214AEB40104D2AB8002C2AB9000017C
:101CDC001214AEB40104D2BB8002C2BB121495FE26
:101CEC00C3940340037F0222E58954CF4EF58990BB
:101CFC0000031214AEFFB40103538EBFEF70034305
:101D0C008E40EFB4020543894080035389BF900095
:101D1C00041214AEB40105438F028003538FFD905F
:101D2C00000512156EE5F0F58D90000512156EF597
:101D3C008B9000071214AEB40102D28E7F0022EDFC
:101D4C0064027074538EEF9000021214AEB401054D
:101D5C0043AF04800353AFFB9000031214AEFED3C9
:101D6C00940240037F0222EEB40103538EFB9000D9
:101D7C00031214AE7003438E049000031214AEB41D
:101D8C000205438E088003538EF79000041214AEA4
:101D9C00B40105438F048003538FFB90000512158B
:101DAC006EFDACF0ECF5D68DD79000071214AEB4E6
:0B1DBC000103438E107F00227F0222F3
:03006300022FFF6A
:032FFF00B2A73244
:102E82009014B97403F0A37480F07B017A1479B9B9
:052E92007F020219D8C7
:102F82003F065B4F666D7D077F6F777C395E797197
:102E97009014BB7403F0A374FFF07B017A1479BB21
:052EA7007F070219D8AD
:102F92003F065B4F666D7D077F6F777C395E797187
:102862009014BD7403F0A374FFF07B017A1479BD58
:102872007F071219D89014BD7403F0A37480F07B03
:10288200017A1479BD7F021219D89014BD7403F035
:10289200A37401F0FB7A1479BD7F031219D8901446
:1028A200BD7403F0A314F07B017A1479BD7F031287
:1028B20019D89014BD7403F0A304F07B017A147943
:0F28C200BD7F031219D8D2A7D2B0D2B1D2B222A1
:10239A00901499EDF0AB07AA067C037DE81214EDC0
:1023AA00A3EFF07C037DE8AF03AE021214ED7E00CA
:1023BA007F64CFCDCFCECCCE1214EDA3EFF07C004C
:1023CA007D64AF03AE021214ED7E007F0ACFCDCF3B
:1023DA00CECCCE1214EDA3EFF0AE02AF037C007D9B
:1023EA000A1214EDA3EDF0C2A790149AE0902F926E
:1023FA0093F5F8901499E0FF7E00122E28D2A7C216
:10240A00B090149BE0902F9293F5F8901499E0FF06
:10241A007E00122E28D2B0C2B190149CE0902F9266
:10242A0093F5F8901499E0FF7E00122E28D2B1C2DB
:10243A00B290149DE0902F9293F5F8901499E0FFD2
:08244A007E00122E28D2B222FE
:10006600481424FEFDFBF7EFDFBF7F48142C8040C9
:0600760020100804020145
:102CA1009014BF7403F0A374FFF07B017A1479BF11
:102CB1007F071219D89014C074FFF07B017A147940
:062CC100BF7F060219D8D6
:102D710074242FF582E43414F583E0F5E8742C2DE6
:0B2D8100F582E43414F583E0F5F8223D
:10007C00602013D8000100020004000800100020CA
:10008C000040008001000200040008001000200065
:10009C0040008000602013B800010002000400083A
:1000AC000010002000400080010002000400080045
:0800BC0010002000400080004C
:1028D1009014C17403F0A374FFF07B017A1479C1E1
:1028E1007F071219D89014C274FFF07B017A147912
:1028F100C17F061219D89014C274E7F07B017A14D3
:1029010079C1E4FF1219D89014C274F8F07B017AEE
:102911001479C17F011219D89014C2743FF07B0160
:092921007A1479C17F030219D870
:1022D500AB05AA04EF1392FFEFA2E192FEA2E292F0
:1022E500FDA2E392FCA2E492FBA2E592FAA2E69299
:1022F500F93392F8EE1392EFEEA2E192EEA2E2929A
:10230500EDA2E392ECA2E492EBA2E592EAA2E692B8
:10231500E93392E8EB54FE4A24FF9281EB54FD4ADF
:1023250024FF9282EB54FB4A24FF9285EB54F74A33
:1023350024FF9286EB54EF4A24FF9287EB54DF4A41
:1023450024FF9280EB54BF4A24FF9293EB547F4ABB
:1023550024FF9294EA54FE4B24FF9295EA54FD4BD8
:1023650024FF9296EA54FB4B24FF9297EA54F74BCD
:1023750024FF92B0EA54EF4B24FF92B1EA54DF4BAD
:1023850024FF92B2EA54BF4B24FF92B4EA547F4B28
:0523950024FF92B522B7
:102B0600EF25E0FFEE33FE74D82FF58274133EF501
:102B160083E0FEA3E0FFC006C007ED25E0FFEC332F
:102B2600FE74D82FF58274133EF583E0FCA3E0FD16
:072B3600D007D0060222D5F2
:102A1400181807080808070000000000FF0000005D
:102A24000000000E00FF00000000FF000E00FF0089
:102A34000000FFF5FBF1FF0000FE08FE0A0AFF009C
:102A4400000400FF000A1100001F111F11111F00D4
:102B3D00E49014C3F0A374FFF07B017A1479C37F82
:102B4D00061219D89014C4740FF07B017A1479C34E
:102B5D007F071219D89014C47402F07B017A14798E
:062B6D00C3E4FF0219D8C9
:082DC200C2FB8FE8D2817F05FE
:102DCA00AD071FED600BE4FEEEC3940150F20E80D6
:022DDA00F722DE
:0100090022D4
:0B2FBF00120009C2F9122DC2C28122CB
:0B2FCA00120009D2F9122DC2C28122B0
:05005E007F01022FBF2D
:102D8C007F06122FBF7F40122FBFE4FCEC902A1459
:0B2D9C0093FF122FCA0CECB440F2228F
:102D3200E4F5CCF5CB7F38122FBF7F01122FBF7F76
:102D420002122FBF7F06122FBF7F0C122FBF022D40
:012D52008CF4
:0E2FB100AC05EF4480FF122FBFAF04022FCA01
:102ACC009014AAEBF0A3EAF0A3E9F0EF4480FF1214
:102ADC002FBF9014AAE0FBA3E0FAA3E0F91214951F
:102AEC0060179014AAA3E475F001121558A9F0FA16
:0A2AFC00121495FF122FCA80D92290
:1000C40065F00AC800000000000000000000000005
:1000D40000000000000000F80000000000000033F1
:1000E4000000000000100C02100C020000000000D0
:1000F400000000000040C07840C0780000043F04C5
:10010400043F040000708888FC0830000018202098
:10011400FF211E00F008F0806018000000310C037D
:100124001E211E0000F00888700000001E21232CF0
:100134001927211000120E0000000000000000002A
:1001440000000000000000E01804020000000007A6
:100154001820400000020418E000000000402018AD
:1001640007000000404080F0804040000202010F80
:100174000102020000000000E00000000001010193
:100184000F01010100000000000000000090700059
:100194000000000000000000000000000001010158
:1001A40001010100000000000000000000303000E8
:1001B4000000000000000000C038040000601807C0
:1001C4000000000000E010080810E000000F1020FC
:1001D40020100F0000001010F80000000000202084
:1001E4003F202000007008080808F0000030282490
:1001F40022213000003008080888700000182021EF
:1002040021221C000000804030F800000006052474
:10021400243F242400F88888880808000019202036
:1002240020110E0000E0108888900000000F1120BB
:1002340020201F0000180808886818000000003EED
:10024400010000000070880808887000001C22214A
:1002540021221C0000F008080810E000000112220E
:1002640022110F00000000C0C00000000000003098
:10027400300000000000008000000000000000E0EA
:10028400000000000000804020100800000102046B
:10029400081020000040404040404000000202029C
:1002A4000202020000081020408000000020100814
:1002B4000402010000704808088870000000003043
:1002C40037000000C030C828E810E00007182728CD
:1002D4002F2817000000C038E0000000203C230253
:1002E4000227382008F8888888700000203F2020E2
:1002F40020110E00C0300808080838000718202014
:100304002010080008F808080810E000203F20200A
:1003140020100F0008F88888E8081000203F2020EB
:100324002320180008F88888E8081000203F2000DF
:1003340003000000C0300808083800000718202017
:10034400221E020008F808000008F808203F2101D6
:1003540001213F20000808F8080800000020203F81
:100364002020000000000808F8080800C0808080F1
:100374007F00000008F888C028180800203F2001EA
:100384002638200008F8080000000000203F202044
:100394002020300008F8F800F8F80800203F013E5B
:1003A400013F200008F830C00008F808203F200072
:1003B40007183F00E01008080810E0000F10202084
:1003C40020100F0008F808080808F000203F210159
:1003D40001010000E01008080810E0000F102828B0
:1003E40030504F0008F8888888887000203F20002B
:1003F400030C3020007088080808380000382021D9
:1004040021221C00180808F8080818000000203FE2
:100414002000000008F808000008F808001F202049
:1004240020201F000878880000C83808000007381A
:100434000E01000008F800F800F8080000033E016F
:100444003E030000081868808068180820302C03D8
:10045400032C30200838C800C83808000000203FAA
:100464002000000010080808C83808002038262199
:1004740020201800000000FE020202000000007F9D
:1004840040404000000438C00000000000000001AB
:100494000638C00000020202FE0000000040404096
:1004A4007F000000000004020204000000000000BD
:1004B4000000000000000000000000008080808038
:1004C4008080808000020204000000000000000020
:1004D4000000000000008080800000000019242437
:1004E400123F200010F0008080000000003F112027
:1004F40020110E000000008080800000000E1120FA
:1005040020201100000080808090F000001F202037
:1005140020103F200000808080800000001F2424E1
:1005240024241700008080E0909020000020203FC9
:10053400202000000000808080808000006B949464
:100544009493600010F0008080800000203F210020
:1005540000203F2000809898000000000020203FE9
:1005640020200000000000809898000000C08080D7
:10057400807F000010F0000080808000203F24066F
:1005840029302000001010F8000000000020203F57
:10059400202000008080808080808000203F200018
:1005A4003F20003F8080008080800000203F2100A9
:1005B40000203F200000808080800000001F202059
:1005C40020201F00808000808000000080FF912098
:1005D40020110E000000008080008000000E112019
:1005E4002091FF80808080008080800020203F2137
:1005F40020000100000080808080800000332424DB
:1006040024241900008080E0808000000000001F86
:10061400202010008080000000808000001F202027
:1006240020103F20808080008080800000030C30F8
:100634000C0300008080008080008080010E300C5C
:100644000738060100808080008080000020310E81
:100654002E31200080808000008080800081867898
:100664001806010000808080808080000021302CEA
:10067400222130000000000000FC02020000000003
:10068400013E404000000000FF00000000000000A8
:10069400FF0000000202FC000000000040403E0198
:1006A4000000000000020102020402000000000039
:1006B4000000000060310A97B1B1BEA9BDDCB4B43A
:1006C400D3C0BAE3BFC6BCBCD4B6B3CCD4C6B6CBD5
:1006D400D3B2BCFEC6BDCCA8BBB6D3ADC0CFCAA6F0
:1006E400D1A7C9FACAB9D3C300630010B800202047
:1006F4002020FF000000FF402010080000206020A0
:100704001010FF0000003F40404040780004040403
:10071400E424242526242424E404040400004020A2
:100724001B0242827E0202020B10600000000808D5
:1007340088482818FF182848880808000082423191
:1007440000001060071060000011E202004020D099
:100754004C4344C8102000F80000FF000000003F94
:10076400404448474070000F40807F0000004040F4
:100774004848C809FAC40080402010000020201016
:10078400080641807F000304081020200000E000D8
:10079400FF102002F29292929292F2020001000063
:1007A400FF0000404F44444444444F40002424A4E8
:1007B400FEA3220022CC0000FF0000000008060176
:1007C400FF00010404040404FF02020200101010DC
:1007D400FF109008888888FF88888808000444826D
:1007E4007F01808040432C10284681800040404295
:1007F400CC002022E22222E22222200000008040BB
:100804003F40A0988780809FA0A0BC80002424A49F
:10081400FE2322003E22222222223E00000806015C
:10082400FF0106404949497F494949410040404246
:10083400424242C242424242424240400000207090
:10084400282423202020242830E0000000C80809A0
:100854000EE808405E5050DF50505E4000206F208C
:100864001C131000FE027F027E82FE00000484E45A
:100874005C44C400F29292FE9292F2020002017F62
:1008840010103F808F54245F448487800000806070
:10089400F80780601C1010FF101010000001000009
:1008A400FF000202020202FF020202020000020230
:1008B40012620202FE02024232020200000101013F
:1008C40001010101FF01010101010101000040E0FA
:1008D40050484443404040485060C000000000007D
:1008E400FE42424242424242FE00000000042444CE
:1008F40084649C40300FC8080828180000100806BB
:1009040001824C2018060106182040800040404215
:10091400CC0000FC040200FC0404FC0000004020A5
:100924001F20404F4442407F424443400020202443
:10093400242424BF64243428242220200010080402
:10094400023F454444424242417800000000FC001A
:1009540000FF0002E22222FE2222E202000087407F
:10096400300F00001F0000FF08100F00004030117E
:10097400969090919690909814135030000404042B
:10098400040444847E060504040404040080403006
:100994001E101010FF1010101010100000404042E4
:1009A400424242427F42424242424040008060F81A
:1009B4000704E4242424FF242424E404000000FF86
:1009C4000080814529112F4141818180000000FE72
:1009D40022222222FE22222222FE00000080601F08
:0D09E400020202027F020242827F00000038
:102A5400E49014C5F0A374FFF07B017A1479C57F68
:102A6400061219D8E49014C5F0A3740FF07B017A10
:102A74001479C57F071219D8E49014C5F0A3740221
:0C2A8400F07B017A1479C5E4FF0219D838
:082DDC00C2F98FE8D2817F05E6
:102DE400AD071FED600BE4FEEEC3940150F20E80BC
:022DF400F722C4
:01000A0022D3
:0B2FD50012000AC2F8122DDCC281229B
:0B2FE00012000AD2F8122DDCC2812280
:102CEC00D2FBD2FCE4FCEC24B8FF122FD57F4012AF
:102CFC002FD5E4FBE4FF122FE00BEBB440F60CEC09
:042D0C00B408E32202
:102DA700E4F5CBC2FBC2FCC2817F0A122DE47F3F50
:0B2DB700122FD57FC0122FD5022CEC8C
:10203600901468EFF090146AEBF0901469EDF0C319
:1020460094405007E4901471F0800D901469E024D8
:10205600C0F09014717401F0E490146FF090146B5A
:10206600E0FF90146FE0FEC39F400302212F9014FF
:1020760071E06006C2FCD2FB8004C2FBD2FC901465
:1020860068E024B82EFF122FD5A3E02440FF122FBC
:10209600D5E4901470F090146AE0F9901470E0FFA3
:1020A600C399507CEFFD7C00901469E02DFFE4336A
:1020B600FEC3EF9440EE64809480500A90146FE063
:1020C60089F0A42D8036901471E0704BC2FCD2FBCF
:1020D600901468E024B8FF90146FE02FFF122FD5FC
:1020E600A3E0FF901469E02FFF122FD5A3E0FF9025
:1020F600146FE08FF0A4FFA3E07C002FFFEC35F017
:10210600FE90146CE0FBA3E0FAA3E0F98F828E83C5
:102116001214AEFF122FE0901470E004F002209C1F
:0A21260090146FE004F00220632221
:06000300C3EF9420FF2270
:102B7300E4FF74972FF582E4340AF583E0FE6021C5
:102B8300121495FDEEB505159000011214AEFE74F6
:102B9300982FF582E4340AF583E06E60040F0F800A
:062BA300D1EFC313FF2275
:10213000901493EFF0A3EDF0A3EBF0A3EAF0A3E982
:10214000F0E4A3F0901495E0FBA3E0FAA3E0F9A378
:10215000E0F5827583001214AEFF7003022209C3FA
:1021600094805038120003EF75F010A424C8F9745D
:102170000A35F0FA90146C7401F0A3EAF0A3E9F0C8
:10218000901493E0FFA3E0FD90146B7402F07B08C1
:10219000122036901494E02408F08052901495E0B8
:1021A000FBA3E0FAA3E0F9A3E0FF7E00E92FF9EE3C
:1021B0003AFA122B73EF75F020A424B8F974103595
:1021C000F0FA90146C7401F0A3EAF0A3E9F0901413
:1021D00093E0FFA3E0FD90146B7402F07B101220DB
:1021E00036901494E02410F0901498E004F09014C9
:1021F00094E0D394784009E4F0901493E02402F042
:0A220000901498E004F0022144223B
:102F1100E49014C7F0A374F0F07B017A1479C77FB1
:042F2100010219D8B8
:042DF6007F017E00DB
:102DFA00EF1FAA0670011E4A600BE4FDEDC394059D
:062E0A0050EE0D80F722DE
:10000E0090149EE0FCA3E0FDA3E0FEA3E0FF121619
:01001E00E2FF
:10001F00AC07E4F9C295FBEC30E003D38001C39247
:10002F0096D295122DF6C295ECC313FC122DF63015
:10003F0097047F0180027F00EFA803088002C3337B
:0F004F00D8FC49F90BEBB408CE122DF6AF012205
:0A2FEB00C2947F0612001FD2942248
:0A2FF500C2947F0412001FD2942240
:102F3800C2947F0512001FE4FF12001FEF20E0F784
:032F4800D29422FE
:102C150090149E1216F5122FEBC2947F2012001FFE
:102C2500781012000E780812000E90149EA3A3A32C
:102C3500E0FF12001FD2947F647E00122DFA122F3E
:042C450038022FF52D
:1027E7009014721216F5901476EBF0A3EAF0A3E9B1
:1027F700F0C2947F0312001F901472E0FCA3E0FD67
:10280700A3E0FEA3E0FF78101216E212001F901457
:1028170072E0FCA3E0FDA3E0FEA3E0FF7808121638
:10282700E212001F901472A3A3A3E0FF12001F90EF
:10283700147974FFF5F012155845F0601BE4FF1288
:10284700001F901476E0FBA3E475F001121558A958
:0B285700F0FAEF1214DB80D7D29422BD
:1025030090147B1216F590147FEBF0A3EAF0A3E985
:10251300F0122FEBC2947F0212001F90147BE0FC99
:10252300A3E0FDA3E0FEA3E0FF78101216E2120081
:102533001F90147BE0FCA3E0FDA3E0FEA3E0FF7883
:10254300081216E212001F90147BA3A3A3E0FF124C
:10255300001FD3901483E09400901482E094014010
:10256300067401F0A3E4F090148274FFF5F01215E1
:102573005845F0602090147FE0FBA3E475F001124E
:102583001558A9F0FA121495FF12001F7F057E005B
:10259300122DFA80D2D2947F647E00122DFA022F7C
:0125A300F542
:1009F10065F00000000000000000000000000000A1
:100A01000000000000000010101010101010000075
:100A11001010000000122424480000000000000013
:100A2100000000000000001212127E2424247E2403
:100A3100242400000000083C4A4A48380C0A0A4AAB
:100A41004A3C080800000044A4A8A8B0541A2A2A65
:100A51004A44000000000030484848506EA4949871
:100A610089760000006020204000000000000000A6
:100A710000000000000204080810101010101008F7
:100A81000804020000402010100808080808081097
:100A910010204000000000001010D63838D6101089
:100AA1000000000000000000000808087F08080896
:100AB1000000000000000000000000000000000035
:100AC1006020204000000000000000007E000000C7
:100AD1000000000000000000000000000000000015
:100AE10060600000000002040404080810101020D7
:100AF100204040000000001824424242424242424B
:100B01002418000000000008380808080808080830
:100B1100083E00000000003C42424202040810204E
:100B2100427E00000000003C4242020418040242DE
:100B3100423C0000000000040C0C142424447F04F7
:100B4100041F00000000007E404040784402024241
:100B510044380000000000182440405C62424242D8
:100B6100221C00000000007E42040408081010103E
:100B7100101000000000003C42424224182442426E
:100B8100423C00000000003844424242463A020220
:100B910024180000000000000000181800000000E8
:100BA1001818000000000000000000100000000004
:100BB100001010100000000204081020402010084E
:100BC100040200000000000000007E00007E000022
:100BD100000000000000004020100804020408107A
:100BE100204000000000003C424262040808080066
:100BF1001818000000000038445AAAAAAAAAAA5C40
:100C0100423C00000000001010182828243C4442F7
:100C110042E70000000000F8444444784442424264
:100C210044F800000000003E424280808080804203
:100C310044380000000000F844424242424242422D
:100C410044F80000000000FC42484878484840420F
:100C510042FC0000000000FC4248487848484040FF
:100C610040E000000000003C44448080808E8444C9
:100C710044380000000000E7424242427E424242C4
:100C810042E700000000007C10101010101010103E
:100C9100107C00000000003E080808080808080849
:100CA100080888F0000000EE44485070504848445D
:100CB10044EE0000000000E0404040404040404021
:100CC10042FE0000000000EE6C6C6C6C6C545454DD
:100CD10054D60000000000C7626252524A4A4A4696
:100CE10046E20000000000384482828282828282D1
:100CF10044380000000000FC424242427C40404037
:100D010040E000000000003844828282828282B288
:100D11004C380600000000FC4242427C48484444F2
:100D210042E300000000003E42424020180402421B
:100D3100427C0000000000FE9210101010101010F4
:100D410010380000000000E7424242424242424263
:100D5100423C0000000000E74242442424282818B5
:100D610010100000000000D654545454546C28282C
:100D710028280000000000E7422424181818242421
:100D810042E70000000000EE444428281010101033
:100D9100103800000000007E840408081020204262
:100DA10042FC0000001E1010101010101010101046
:100DB10010101E0000004020202010101008080410
:100DC100040402020078080808080808080808084E
:100DD100080878000018240000000000000000004E
:100DE1000000000000000000000000000000000002
:100DF100000000FF00601000000000000000000083
:100E0100000000000000000000000038440C3444E1
:100E11004C36000000000000C0404058644242428D
:100E210064580000000000000000001C2240404007
:100E3100221C0000000000000602023E4242424223
:100E4100463B0000000000000000003C42427E40A2
:100E5100423C0000000000000C12107C1010101029
:100E6100107C0000000000000000003E44443840B7
:100E71003C42423C00000000C040405C62424242B1
:100E810042E7000000000030300000701010101028
:100E9100107C00000000000C0C00001C0404040481
:100EA1000404447800000000C040404E485070489F
:100EB10044EE00000000001070101010101010100F
:100EC100107C000000000000000000FE4949494973
:100ED10049ED000000000000000000DC62424242D7
:100EE10042E70000000000000000003C4242424294
:100EF100423C000000000000000000D86442424271
:100F0100645840E0000000000000001A26424242FE
:100F1100261A020700000000000000EE3220202007
:100F210020F80000000000000000003E42403C02AA
:100F3100427C0000000000000010107C1010101016
:100F4100120C000000000000000000C642424242B4
:100F5100463B000000000000000000EE4444282849
:100F61001010000000000000000000DB894A5A5404
:100F71002424000000000000000000762418181846
:100F8100246E000000000000000000E74224241845
:100F910018101060000000000000007E44081010CE
:100FA100227E000000030404040404040804040471
:100FB10004040300080808080808080808080808C5
:100FC1000808080800C02020202020201020202010
:100FD1002020C000205A0400000000000000000092
:100FE1000000000060470A50B1B1BEA9BDDCB4B435
:100FF100D3C0BAE3BFC6BCBCD3D0CFDEB9ABCBBE86
:10100100D4B6B3CCD4C6B6CBD3B2BCFECAB5D1E943
:10101100C6BDCCA8B5A5C6ACBBFAB0E6B1BEBBB6E1
:10102100D3ADC0CFCAA6D1A7C9FACAB9D3C3006488
:101031006005F0044004400440044404487C50042A
:1010410060044004400440044004421C42E4424421
:101051003E040002000100FFFE000000001FF0102E
:1010610010101010101FF00100111011082104457B
:101071000402000100010001007FFC03800540091A
:101081002011102108C106010000002488224442D9
:101091004480040804080414041224212440A4BE3A
:1010A100242224222422242A242424208420841F4C
:1010B1009400080200010000801F00010401087D66
:1010C1009005A005400940092011102108C106051D
:1010D100000200100013FE1000100019FC5504510D
:1010E1000451FC9104110411FC11041000100013AF
:1010F100FE100008101D10F09010901010FD10103F
:101101009038903410501E53F090101010101010A1
:1011110010101010201020102013FEFC20102010A1
:101121002015FC18843088D04810501020105051E0
:1011310088260602000200FFFE040004000FF008EA
:101141001018102FF0481088100FF0081008100820
:1011510050082000007BF84A08520853F8620852F0
:10116100084BF84A444A486A3052204210428843A8
:1011710006420000800480048008400840102020BE
:10118100104208820604000440082010203FF0109D
:1011910010000000003FF8000800087FE800080088
:1011A100081F8810881088108810881F88108800F0
:1011B100280010000023F810001000000007FCF1C7
:1011C10020112011201120112412241224141C2872
:1011D1000047FE08001DFCF10411041104FDFC1080
:1011E10000300039FE5420542091FC1020102013AF
:1011F100FE100000003FF80000000000000000FFAA
:10120100FE0200040004000840102020107FF82096
:10121100080008202011241124FD2401FC08008B62
:10122100FE8820484049FC515451541D54E1544119
:1012310054010C000001FEFC20102011FC21243D72
:101241002465FC6524A52425FC25203CA024402000
:10125100B0030E082008200920112011FC32203291
:10126100205420902017FE10201020102010201054
:10127100201020020001007FFE40028884048004C7
:1012810080108008800880FFFE01400220041018B1
:101291000860040020F82008504850488849044A52
:1012A100FA7C00044404241D24E4A8448804102B7F
:1012B100FE100000007FFC0100010011100910095F
:1012C100200100FFFE0100010001000100010001F9
:1012D1000001000200020004000820101020087F15
:1012E100FC200400001FF010101010101010101F2F
:1012F100F010101010082004403FF8210821083F89
:10130100F8210821083FF801000100FFFE0100015A
:10131100000100004010401040104010401FFC1020
:1013210000100010001FE0102010201020202020AD
:10133100204020100011F011101110FD101110317A
:10134100103910551055109110111211121212125C
:101351000E14000808481C49E0490049007DFC4181
:10136100444144794449284928491049104A284AA6
:10137100448C8201000100010001007FFC03800513
:101381004005400920111021084FE48102010001AC
:1013910000010000800080FC8004FC050449082A4B
:1013A100401440104028A024A045108110020804D8
:1013B10004080200002080133C122402240224F2BB
:1013C100241224122412B41328122010202820479A
:1013D100FE0000020002083FD002200240FFFE0191
:1013E1000002000C1018E02F0048088808080807C0
:1013F100F8000008000BFE48204820482049FC491D
:10140100244924492449244924093411281020203D
:1014110020402022081108111000207FFE40028088
:10142100041FE000400180FFFE01000100010005F2
:1014310000020001001100110011003FFC210041D8
:1014410000810001003FF80100010001000100FFDF
:10145100FE0000104010401FFE2040204067FC6449
:1014610044A44427FC2040224021402080214022E6
:10147100302C0E00003FF82108210821083FF821F7
:1014810008210821083FF8210821082108410841C5
:03149100288010A0
:102A9000E49014C9F0A374FFF07B017A1479C97F24
:102AA000061219D8E49014C9F0A3740FF07B017AD0
:102AB0001479C97F071219D8E49014C9F0A37402DD
:0C2AC000F07B017A1479C9E4FF0219D8F8
:102F5E00AD071FED600BE4FEEEC3940150F20E8040
:022F6E00F72248
:102F7000C2C9C282C2808FE8EEF5F8D2C97F0802CA
:022F80002F5EC2
:052E5600E0FEA3E0FF17
:102E5B00C2C9D282C2808FE8EEF5F8D2C97F0502D3
:022E6B002F5ED8
:1029CC00901484EEF0A3EFF0A3ECF0A3EDF07F20D5
:1029DC007E00122F70901484122E567F217E0012CE
:1029EC002F70AE02AF03122E5B7F227E00122F706F
:1029FC00A3122E567F237E00122F7090148A122E53
:082A0C00567F2F7E00022F709F
:102C7600AB05AA048F828E837F247E00122F70AE4E
:102C860083AF82122E5B7F257E00122F70AE02AFBD
:0B2C960003122E5B7F2F7E00022F70C8
:082D530090143CE0FAA3E0FB40
:102D5B009014CBEAF0A3EBF0122C769014CBE0FEA0
:062D6B00A3E0FF022E5B55
:10292A009014A2EEF0A3EFF090148AE4F0A374EFEF
:10293A00F07B3F7A01E4FDFCFFFE1229CCE49014FF
:10294A00A4F0A3F0E4FBFA9014A2122E560BBB00DB
:10295A00010AEB64F04A70EF9014A5E004F07006E7
:10296A009014A4E004F0C39014A5E094409014A439
:06297A00E0940140CF22B1
:082BA9009FFFE09EFEE4FCFD2D
:102BB1009014A61216F59014A6E0FCA3E0FDA3E084
:102BC100FEA3E0FFEC339014A65007A3A3A3E002F9
:0E2BD10016C3E0FCA3E0FDA3E0FEA3E0FF229C
:10175400901436ECF0A3EDF0901434EEF0A3EFF017
:10176400901438EAF0A3EBF0B5072CEEB50228A3E9
:10177400E0FEA3E0FF901436E0FCA3E0FDB50717FC
:10178400ECB50613901434E0FEA3E0FF90143CE0A3
:10179400FAA3E0FB022D5B901434E0FEA3E0FFC348
:1017A400901439E0901438122BA9C004C005C00667
:1017B400C007901436E0FEA3E0FFC390143BE09012
:1017C400143A122BA9A804A905AA06AB07D007D07E
:1017D40006D005D004D31216D150030218D89014A1
:1017E4003AE0FEA3E0FF901436E0FCA3E0FDD39FB3
:1017F400EC9E403F901442ECF0A3EDF0901436EED2
:10180400F0A3EFF090143AECF0A3EDF0901434E070
:10181400FEA3E0FF901442EEF0A3EFF0901438E042
:10182400FDA3E0901434CDF0A3EDF0901438EEF065
:10183400A3EFF0901436E0FFA3E0901440CFF0A3A0
:10184400EFF090143AE0FEA3E0FF901440E0FCA314
:10185400E0FDD39FEC9E40030219D1901436E0FEC4
:10186400A3E0FFC3ED9FFFEC9EFE901434E0FCA3C5
:10187400E0FDC3901439E09DFD901438E09CFC1207
:101884001727C006C007901436E0FEA3E0FFC390FC
:10189400143BE09FFF90143AE09EAB07FAE4F9F89A
:1018A400D007D006121631901435E02FFF9014346F
:1018B400E03EFE90143EF0A3EFF0A3E0FCA3E0FDB5
:1018C400122D53901441E004F07006901440E0048B
:1018D400F0021846901438E0FEA3E0FF901434E0C0
:1018E400FCA3E0FDD39FEC9E4044A3E0FEA3E0FFF5
:1018F400901442EEF0A3EFF090143AE0FBA3E090D2
:101904001436CBF0A3EBF090143AEEF0A3EFF09082
:101914001442ECF0A3EDF0901438E0FFA3E090142F
:1019240034CFF0A3EFF0901438ECF0A3EDF0901462
:1019340034E0FFA3E090143ECFF0A3EFF09014380E
:10194400E0FEA3E0FF90143EE0FCA3E0FDD39FEC97
:101954009E507A901434E0FEA3E0FFC3ED9FFFECA9
:101964009EFEA3E0FCA3E0FDC390143BE09DFD902C
:10197400143AE09CFC121727C006C007901434E008
:10198400FEA3E0FFC3901439E09FFF901438E09E5B
:10199400AB07FAE4F9F8D007D006121631901437E1
:1019A400E02FFF901436E03E901440F0FCA3EFF0DB
:1019B400FD90143EE0FEA3E0FF122D5390143FE08F
:0E19C40004F0700690143EE004F00219412277
:1025A400901444EEF0A3EFF0901448EAF0A3EBF09B
:1025B400901446ECF0A3EDF0901444E0FAA3E0FF8D
:1025C400AE02C006C0072407FBE43AFAA3E0FEA368
:1025D400E0240FFFE43E90148AF0A3EFF0D007D07C
:1025E400061229CCE490144FF090144FE0FFC394EA
:1025F40010504890144CE0FBA3E0FAA3E0F98F825A
:102604007583001214AEFCE4FB74807E00A80308FA
:102614008006CEA2E713CE13D8F8FFECF582EF556F
:10262400826005901448800390144A122E560BEBD6
:0C263400B408D690144FE004F080AE22F1
:10264000901450EEF0A3EFF0901454EAF0A3EBF0E6
:10265000901452ECF0A3EDF0901450E0FAA3E0FFD8
:10266000AE02C006C007240FFBE43AFAA3E0FEA3C3
:10267000E0240FFFE43E90148AF0A3EFF0D007D0DF
:10268000061229CCE490145BF090145BE0FFC39435
:10269000205048901458E0FBA3E0FAA3E0F98F82A1
:1026A0007583001214AEFCE4FB74807E00A803085E
:1026B0008006CEA2E713CE13D8F8FFECF582EF55D3
:1026C0008260059014548003901456122E560BEB22
:0C26D000B408D690145BE004F080AE2249
:092FA200F5827583001214AEFFE4
:062FAB00C3EF9420FF2299
:102BDF00E4FF74502FF582E4340AF583E0FE6021A0
:102BEF00121495FDEEB505159000011214AEFE748A
:102BFF00512FF582E4340AF583E06E60040F0F80E5
:062C0F00D1EFC313FF2208
:101F000090145CEEF0A3EFF0A3ECF0A3EDF0A3EAE5
:101F1000F0A3EBF0E4901467F0901464E0FBA3E00E
:101F2000FAA3E0F9A3E0F5827583001214AEFF7006
:101F300003022035C390145DE0943090145CE0946B
:101F4000014012E4F0A3F090145FE02410F090142C
:101F50005EE03400F0C390145FE094E090145EE023
:101F600094004004E4F0A3F0EFC39480901464E084
:101F7000FBA3E0FAA3E0F9A3E05052122FA2EF7501
:101F8000F010A42400F9740035F0FA90144C740198
:101F9000F0A3EAF0A3E9F090145EE0FCA3E0FDA357
:101FA000E0FAA3E0FBA3E0FFA3E090144ACFF0A384
:101FB000EFF090145CE0FEA3E0FF1225A490145D06
:101FC000E02408F090145CE03400F0805FFF7E00B5
:101FD000E92FF9EE3AFA122BDFEF75F020A424F086
:101FE000F9740535F0FA9014587401F0A3EAF0A3DF
:101FF000E9F090145EE0FCA3E0FDA3E0FAA3E0FBAF
:10200000A3E0FFA3E0901456CFF0A3EFF090145C90
:10201000E0FEA3E0FF12264090145DE02410F09053
:10202000145CE03400F0901467E004F0901467E072
:0620300004F0021F19225A
:1024520090148CEBF0A3EAF0A3E9F0121495FF902C
:10246200148CE0FBA3E475F001121542A9F0FA12F4
:102472001495901492F0EFC394A1401AE0FE94A137
:102482004014EEF46010EFD394F7500AEF94A94091
:1024920021EF94B0501CE4FE90148FE0FBA3E4758E
:1024A200F001121558A9F0FAE41214DB0EEEB42072
:1024B200E722901492E0245FF0745F2FFF7E007C8D
:1024C200007D5E121727A804A905AA06AB07E0FF44
:1024D200E4FCFDFEEB2FFFEE3AFEED39FDEC38FC9D
:1024E200E47B20FAF9F81215A690148FE0FBA3E022
:1024F200FAA3E0F9901479E4F0A37420F01227E72C
:0125020022B6
:101DC7009013F8EEF0A3EFF0A3ECF0A3EDF0A3EA85
:101DD700F0A3EBF0E4901403F0901400E0FBA3E011
:101DE700FAA3E0F9A3E0F5827583001214AEFF7041
:101DF70003021EFFC39013F9E094309013F8E094A8
:101E0700014012E4F0A3F09013FBE02410F09013CC
:101E1700FAE03400F0C39013FBE094E09013FAE08B
:101E270094004004E4F0A3F0EFC39480901400E022
:101E3700FBA3E0FAA3E0F9A3E05052122FA2EF753B
:101E4700F010A42400F9740035F0FA90144C7401D2
:101E5700F0A3EAF0A3E9F09013FAE0FCA3E0FDA3F6
:101E6700E0FAA3E0FBA3E0FFA3E090144ACFF0A3BE
:101E7700EFF09013F8E0FEA3E0FF1225A49013F90A
:101E8700E02408F09013F8E03400F08062FF7E0051
:101E9700E92FF9EE3AFA90148F7401F0A37414F055
:101EA700A37404F01224529013F8E0FEA3E0FFA3FA
:101EB700E0FCA3E0FD9013FEE0FBA3E0901456CBFB
:101EC700F0A3EBF0A37401F0A37414F0A37404F06F
:101ED7009013FCE0FAA3E0FB1226409013F9E024EC
:101EE70010F09013F8E03400F0901403E004F09041
:091EF7001403E004F0021DE022D6
:102EAC009014CD7403F0A3741EF07B017A1479CDC9
:052EBC007F060219D899
:062E1000D2EAC2EBC2ECA5
:102E1600E4FEEEC39F500AE4FD0DEDB40AFB0E80FE
:022E2600F12297
:10298000AB07AA06D2E9C2EA122E12D2E9122E1021
:10299000C2E9122E10C2E9D2EAD2EBC2EC122E1614
:1029A000C2E9C2EAD2EBC2EC122E16C2E9C2EAD2E6
:1029B000EBD2EC122E16C2E9C2EAC2EBD2EC122E16
:0C29C00016D2E9C2EAC2EBD2EC022E16DD
:102CC7009014CF7403F0A37440F07B017A1479CF8A
:102CD700E4FF1219D89014D07403F07B017A1479A9
:052CE700CFFF0219D827
:102F4B00438E80E4F589758AD0758C8AD28CD2A990
:032F5B00D2AF22D0
:102D1000EF14600A04701AC28CC2B0C2B122D28C05
:102D2000ED24FE6008047009D2B0C2B122C2B0D254
:022D3000B122CE
:03000B00023002BE
:03300200B2863261
:030000000226DCF9
:0C26DC00787FE4F6D8FD75810702272303
:10149500BB010689828A83E0225002E722BBFE0255
:0914A500E32289828A83E4932288
:1014AE00BB010CE58229F582E5833AF583E02250F3
:1014BE0006E92582F8E622BBFE06E92582F8E2223D
:0D14CE00E58229F582E5833AF583E4932257
:1014DB00BB010689828A83F0225002F722BBFE01F0
:0214EB00F322EA
:1014ED00BC000BBE0029EF8DF084FFADF022E4CCE3
:1014FD00F875F008EF2FFFEE33FEEC33FCEE9DECAC
:10150D00984005FCEE9DFE0FD5F0E9E4CEFD22EDF1
:10151D00F8F5F0EE8420D21CFEADF075F008EF2F3B
:10152D00FFED33FD4007985006D5F0F222C398FD2C
:05153D000FD5F0EA22C9
:10154200C5F0F8A3E028F0C5F0F8E5821582700234
:061552001583E038F022D1
:10155800A3F8E0C5F025F0F0E58215827002158346
:06156800E0C838F0E822A3
:10156E00BB0110E58229F582E5833AF583E0F5F0BB
:10157E00A3E0225009E92582F886F008E622BBFE98
:10158E000AE92582F8E2F5F008E222E5832AF583DE
:08159E00E993F5F0A3E99322A3
:1015A600E88FF0A4CC8BF0A42CFCE98EF0A42CFCE4
:1015B6008AF0EDA42CFCEA8EF0A4CDA8F08BF0A462
:1015C6002DCC3825F0FDE98FF0A42CCD35F0FCEBC1
:1015D6008EF0A4FEA9F0EB8FF0A4CFC5F02ECD3986
:0F15E600FEE43CFCEAA42DCE35F0FDE43CFC22F3
:1015F50075F008758200EF2FFFEE33FECD33CDCCAD
:1016050033CCC58233C5829BED9AEC99E58298402F
:101615000CF582EE9BFEED9AFDEC99FC0FD5F0D60C
:10162500E4CEFBE4CDFAE4CCF9A88222B800C1B936
:101635000059BA002DEC8BF084CFCECDFCE5F0CB74
:10164500F97818EF2FFFEE33FEED33FDEC33FCEBAD
:1016550033FB10D703994004EB99FB0FD8E5E4F968
:10166500FA227818EF2FFFEE33FEED33FDEC33FC55
:10167500C933C910D7059BE99A4007EC9BFCE99A49
:10168500F90FD8E0E4C9FAE4CCFB2275F010EF2F8E
:10169500FFEE33FEED33FDCC33CCC833C810D7078E
:1016A5009BEC9AE899400AED9BFDEC9AFCE899F8C9
:0E16B5000FD5F0DAE4CDFBE4CCFAE4C8F9225C
:0E16C300C3E49FFFE49EFEE49DFDE49CFC2238
:1016D100EB9FF5F0EA9E42F0E99D42F0E89C45F06F
:0116E10022E6
:1016E200E8600FECC313FCED13FDEE13FEEF13FFE6
:0316F200D8F1220A
:0C16F500ECF0A3EDF0A3EEF0A3EFF02268
:10170100D083D082F8E4937012740193700DA3A377
:1017110093F8740193F5828883E47374029368608B
:06172100EFA3A3A380DF8B
:10172700EC8EF0A4CCC5F0CCCDF8EFA4CEC5F02D4F
:10173700FDE43CFCE8A42EC8C5F03DFDE43CFCEF0D
:0D174700A4FFE5F028FEE43DFDE43CFC229B
:1026E800022EC1E493A3F8E493A34003F68001F219
:1026F80008DFF48029E493A3F85407240CC8C333F3
:10270800C4540F4420C8834004F456800146F6DFC1
:10271800E4800B0102040810204080900066E47EEB
:10272800019360BCA3FF543F30E509541FFEE493B6
:10273800A360010ECF54C025E060A840B8E493A37D
:10274800FAE493A3F8E493A3C8C582C8CAC583CAA8
:10275800F0A3C8C582C8CAC583CADFE9DEE780BE60
:011494000057
:00000001FF
