:04077A00410000102A
:10068300120003120706E4900001F0900001E0FF5E
:10069300C3941050F1EF90076A93F5F87FF47E014D
:0B06A3001206AE900001E004F080E0C1
:100003009000107403F0A374C0F07B017A007910A0
:10001300E4FF12006C9000107403F0A374D1F07F1E
:10002300011200669000107403F0A3748CF07F0239
:100033001200669000107403F0A37480F07B017AC1
:100043000079107F0312006C9000107403F0A37406
:0D00530034F07B017A0079107F0402006C0C
:060066007B017A00791015
:10006C00EFD3940740037F0122120526FED394039D
:10007C0040037F0222EF7041EE700B9000011205DD
:10008C003FF452935294120526B4010B90000112C6
:10009C00053F4293F45294120526FEB4020A9000D6
:1000AC000112053F42934294EEB4030D90000112ED
:1000BC00053FFEF45293EE4294EF64017043120537
:1000CC0026FE700B90000112053FF452915292EEF5
:1000DC00B4010B90000112053F4291F452921205AB
:1000EC0026B4020A90000112053F42914292120579
:1000FC0026B4030D90000112053FFEF45291EE421E
:10010C0092EF64027043120526FE700B90000112F0
:10011C00053FF452955296EEB4010B900001120576
:10012C003F4295F45296120526B4020A9000011231
:10013C00053F42954296120526B4030D900001121C
:10014C00053FFEF45295EE4296EF640370431205A0
:10015C0026FE700B90000112053FF452B152B2EE24
:10016C00B4010B90000112053F42B1F452B21205DA
:10017C0026B4020A90000112053F42B142B21205A8
:10018C0026B4030D90000112053FFEF452B1EE426D
:10019C00B2EF64047043120526FE700B900001123E
:1001AC00053FF452B352B4EEB4010B9000011205AA
:1001BC003F42B3F452B4120526B4020A9000011265
:1001CC00053F42B342B4120526B4030D9000011250
:1001DC00053FFEF452B3EE42B4EF640570431205D2
:1001EC0026FE700B90000112053FF452C952CAEE64
:1001FC00B4010B90000112053F42C9F452CA12051A
:10020C0026B4020A90000112053F42C942CA1205E7
:10021C0026B4030D90000112053FFEF452C9EE42C4
:10022C00CAEF64067043120526FE700B9000011293
:10023C00053FF452CB52CCEEB4010B9000011205E9
:10024C003F42CBF452CC120526B4020A90000112A4
:10025C00053F42CB42CC120526B4030D900001128F
:10026C00053FFEF452CBEE42CCEF6407704312050F
:10027C0026FF700B90000112053FF452E152E2EFA1
:10028C00B4010B90000112053F42E1F452E2120559
:10029C0026B4020A90000112053F42E142E2120527
:1002AC0026B4030D90000112053FFFF452E1EF421A
:0402BC00E27F0022BB
:100757009000027403F0A3F07B017A0079027F0511
:0307670002006C21
:1006AE007D037C09ED1D70011C144C70F7EF1F705B
:0706BE00011E144E70EA2238
:1006C5007D017C00ED1D70011C144C70F7EF1F704F
:0706D500011E144E70EA2221
:100656009000057410F09000047401F0FB7A0079A4
:10066600047F0312006C9000057401F0900004747E
:0D06760003F07B017A0079047F0502006C1F
:10071B009000067403F0A304F07B017A0079067F46
:04072B000302006C59
:10072F00E4900008F0A374FFF07B017A0079087F52
:04073F000602006C42
:10045B009000127410F0AFE8EF1205A4049B110486
:10046B00BA1204DA1404FA1804A22104C22204E218
:10047B002405022804AA4104CA4204EA44050A4896
:10048B0004B28104D28204F2840512880000051A9A
:10049B00E4900012F0807E9000127401F080769050
:1004AB0000127402F0806E9000127403F08066905C
:1004BB0000127404F0805E9000127405F080569068
:1004CB0000127406F0804E9000127407F080469074
:1004DB0000127408F0803E9000127409F080369080
:1004EB000012740AF0802E900012740BF08026908C
:1004FB000012740CF0801E900012740DF080169098
:10050B000012740EF0800E900012740FF0800690A3
:0B051B0000127410F0900012E0FF22AC
:10074300E490000AF0A3740CF07B017A00790A7F2D
:040753000302006C31
:1006DC0090000C7403F0A37480F07B017A00790C09
:0506EC007F0202006C1A
:1002C000AD07EDD3940240037F0122ED60030203EA
:1002D00054C28C90000212053FB40104D2A98002DE
:1002E000C2A990000112053FB40104D2B98002C234
:1002F000B9120526FED3940340037F0222E58954F8
:10030000FC4EF58990000312053FFFB40103538EA4
:100310007FEF7003438E80EFB402054389048003AE
:100320005389FB90000412053FB40105438F0180FF
:1003300003538FFE90000512056CE5F0F58C9000DC
:100340000512056CF58A90000712053FB40102D230
:100350008C7F0022ED640160030203DFC28E9000F7
:100360000212053FB40104D2AB8002C2AB9000017F
:1003700012053FB40104D2BB8002C2BB120526FEA7
:10038000C3940340037F0222E58954CF4EF5899040
:10039000000312053FFFB40103538EBFEF70034308
:1003A0008E40EFB4020543894080035389BF90001B
:1003B0000412053FB40105438F028003538FFD9063
:1003C000000512056CE5F0F58D90000512056CF541
:1003D0008B90000712053FB40102D28E7F0022ED00
:1003E00064027074538EEF90000212053FB4010551
:1003F00043AF04800353AFFB90000312053FFED3CD
:10040000940240037F0222EEB40103538EFB90005E
:100410000312053F7003438E0490000312053FB49E
:100420000205438E088003538EF790000412053FA7
:10043000B40105438F048003538FFB900005120520
:100440006CFDACF0ECF5D68DD790000712053FB4EB
:0B0450000103438E107F00227F022278
:0300630002006038
:03006000B2A73212
:1006F10090000E7403F0A37480F07B017A00790EF0
:050701007F0202006C04
:10076A003F065B4F666D7D077F6F777C395E7971D7
:100706009000107403F0A374FFF07B017A00791057
:050716007F0702006CEA
:030000000205CA2C
:0C05CA00787FE4F6D8FD75810702061169
:10052600BB010689828A83E0225002E722BBFE02D3
:09053600E32289828A83E4932206
:10053F00BB010CE58229F582E5833AF583E0225071
:10054F0006E92582F8E622BBFE06E92582F8E222BB
:0D055F00E58229F582E5833AF583E49322D5
:10056C00BB0110E58229F582E5833AF583E0F5F0CD
:10057C00A3E0225009E92582F886F008E622BBFEAA
:10058C000AE92582F8E2F5F008E222E5832AF583F0
:08059C00E993F5F0A3E99322B5
:1005A400D083D082F8E4937012740193700DA3A3E6
:1005B40093F8740193F5828883E4737402936860FA
:0605C400EFA3A3A380DFFA
:1005D600020683E493A3F8E493A34003F68001F2B2
:1005E60008DFF48029E493A3F85407240CC8C33326
:1005F600C4540F4420C8834004F456800146F6DFF5
:10060600E4800B010204081020408090077AE47E03
:10061600019360BCA3FF543F30E509541FFEE493E9
:10062600A360010ECF54C025E060A840B8E493A3B0
:10063600FAE493A3F8E493A3C8C582C8CAC583CADB
:10064600F0A3C8C582C8CAC583CADFE9DEE780BE93
:01077E00007A
:00000001FF
